{
  "_format": "hh-sol-artifact-1",
  "contractName": "Employee",
  "sourceName": "contracts/Employee.sol",
  "abi": [
    {
      "inputs": [],
      "stateMutability": "nonpayable",
      "type": "constructor"
    },
    {
      "inputs": [
        {
          "internalType": "address",
          "name": "owner",
          "type": "address"
        }
      ],
      "name": "OwnableInvalidOwner",
      "type": "error"
    },
    {
      "inputs": [
        {
          "internalType": "address",
          "name": "account",
          "type": "address"
        }
      ],
      "name": "OwnableUnauthorizedAccount",
      "type": "error"
    },
    {
      "anonymous": false,
      "inputs": [
        {
          "indexed": true,
          "internalType": "string",
          "name": "employeeId",
          "type": "string"
        },
        {
          "indexed": false,
          "internalType": "string",
          "name": "name",
          "type": "string"
        },
        {
          "indexed": false,
          "internalType": "address",
          "name": "wallet",
          "type": "address"
        }
      ],
      "name": "EmployeeAdded",
      "type": "event"
    },
    {
      "anonymous": false,
      "inputs": [
        {
          "indexed": true,
          "internalType": "string",
          "name": "employeeId",
          "type": "string"
        },
        {
          "indexed": false,
          "internalType": "string",
          "name": "status",
          "type": "string"
        },
        {
          "indexed": false,
          "internalType": "string",
          "name": "reason",
          "type": "string"
        }
      ],
      "name": "EmployeeStatusUpdated",
      "type": "event"
    },
    {
      "anonymous": false,
      "inputs": [
        {
          "indexed": true,
          "internalType": "string",
          "name": "employeeId",
          "type": "string"
        },
        {
          "indexed": false,
          "internalType": "address",
          "name": "newWallet",
          "type": "address"
        }
      ],
      "name": "EmployeeWalletUpdated",
      "type": "event"
    },
    {
      "anonymous": false,
      "inputs": [
        {
          "indexed": true,
          "internalType": "string",
          "name": "employeeId",
          "type": "string"
        },
        {
          "indexed": false,
          "internalType": "uint256",
          "name": "leaveDays",
          "type": "uint256"
        },
        {
          "indexed": false,
          "internalType": "string",
          "name": "reason",
          "type": "string"
        }
      ],
      "name": "LeaveApproved",
      "type": "event"
    },
    {
      "anonymous": false,
      "inputs": [
        {
          "indexed": true,
          "internalType": "address",
          "name": "previousOwner",
          "type": "address"
        },
        {
          "indexed": true,
          "internalType": "address",
          "name": "newOwner",
          "type": "address"
        }
      ],
      "name": "OwnershipTransferred",
      "type": "event"
    },
    {
      "inputs": [
        {
          "internalType": "string",
          "name": "employeeId",
          "type": "string"
        },
        {
          "internalType": "string",
          "name": "name",
          "type": "string"
        },
        {
          "internalType": "address",
          "name": "wallet",
          "type": "address"
        },
        {
          "internalType": "string",
          "name": "role",
          "type": "string"
        },
        {
          "internalType": "string",
          "name": "doj",
          "type": "string"
        },
        {
          "internalType": "string",
          "name": "department",
          "type": "string"
        }
      ],
      "name": "addEmployee",
      "outputs": [],
      "stateMutability": "nonpayable",
      "type": "function"
    },
    {
      "inputs": [
        {
          "internalType": "string",
          "name": "",
          "type": "string"
        }
      ],
      "name": "employeesByID",
      "outputs": [
        {
          "internalType": "string",
          "name": "employeeId",
          "type": "string"
        },
        {
          "internalType": "string",
          "name": "name",
          "type": "string"
        },
        {
          "internalType": "address",
          "name": "wallet",
          "type": "address"
        },
        {
          "internalType": "string",
          "name": "role",
          "type": "string"
        },
        {
          "internalType": "string",
          "name": "doj",
          "type": "string"
        },
        {
          "internalType": "string",
          "name": "department",
          "type": "string"
        }
      ],
      "stateMutability": "view",
      "type": "function"
    },
    {
      "inputs": [
        {
          "internalType": "string",
          "name": "employeeId",
          "type": "string"
        }
      ],
      "name": "getEmployeeById",
      "outputs": [
        {
          "components": [
            {
              "internalType": "string",
              "name": "employeeId",
              "type": "string"
            },
            {
              "internalType": "string",
              "name": "name",
              "type": "string"
            },
            {
              "internalType": "address",
              "name": "wallet",
              "type": "address"
            },
            {
              "internalType": "string",
              "name": "role",
              "type": "string"
            },
            {
              "internalType": "string",
              "name": "doj",
              "type": "string"
            },
            {
              "internalType": "string",
              "name": "department",
              "type": "string"
            }
          ],
          "internalType": "struct Employee.Record",
          "name": "",
          "type": "tuple"
        }
      ],
      "stateMutability": "view",
      "type": "function"
    },
    {
      "inputs": [
        {
          "internalType": "address",
          "name": "wallet",
          "type": "address"
        }
      ],
      "name": "getEmployeeByWallet",
      "outputs": [
        {
          "components": [
            {
              "internalType": "string",
              "name": "employeeId",
              "type": "string"
            },
            {
              "internalType": "string",
              "name": "name",
              "type": "string"
            },
            {
              "internalType": "address",
              "name": "wallet",
              "type": "address"
            },
            {
              "internalType": "string",
              "name": "role",
              "type": "string"
            },
            {
              "internalType": "string",
              "name": "doj",
              "type": "string"
            },
            {
              "internalType": "string",
              "name": "department",
              "type": "string"
            }
          ],
          "internalType": "struct Employee.Record",
          "name": "",
          "type": "tuple"
        }
      ],
      "stateMutability": "view",
      "type": "function"
    },
    {
      "inputs": [
        {
          "internalType": "string",
          "name": "employeeId",
          "type": "string"
        }
      ],
      "name": "getLeaveRecords",
      "outputs": [
        {
          "components": [
            {
              "internalType": "uint256",
              "name": "leaveDays",
              "type": "uint256"
            },
            {
              "internalType": "string",
              "name": "reason",
              "type": "string"
            },
            {
              "internalType": "uint256",
              "name": "timestamp",
              "type": "uint256"
            }
          ],
          "internalType": "struct Employee.LeaveRecord[]",
          "name": "",
          "type": "tuple[]"
        }
      ],
      "stateMutability": "view",
      "type": "function"
    },
    {
      "inputs": [
        {
          "internalType": "string",
          "name": "employeeId",
          "type": "string"
        }
      ],
      "name": "getStatusRecords",
      "outputs": [
        {
          "components": [
            {
              "internalType": "string",
              "name": "status",
              "type": "string"
            },
            {
              "internalType": "string",
              "name": "reason",
              "type": "string"
            },
            {
              "internalType": "uint256",
              "name": "timestamp",
              "type": "uint256"
            }
          ],
          "internalType": "struct Employee.StatusRecord[]",
          "name": "",
          "type": "tuple[]"
        }
      ],
      "stateMutability": "view",
      "type": "function"
    },
    {
      "inputs": [
        {
          "internalType": "string",
          "name": "",
          "type": "string"
        }
      ],
      "name": "isEmployee",
      "outputs": [
        {
          "internalType": "bool",
          "name": "",
          "type": "bool"
        }
      ],
      "stateMutability": "view",
      "type": "function"
    },
    {
      "inputs": [
        {
          "internalType": "string",
          "name": "employeeId",
          "type": "string"
        },
        {
          "internalType": "uint256",
          "name": "leaveDays",
          "type": "uint256"
        },
        {
          "internalType": "string",
          "name": "reason",
          "type": "string"
        }
      ],
      "name": "leaveApproved",
      "outputs": [],
      "stateMutability": "nonpayable",
      "type": "function"
    },
    {
      "inputs": [
        {
          "internalType": "string",
          "name": "",
          "type": "string"
        },
        {
          "internalType": "uint256",
          "name": "",
          "type": "uint256"
        }
      ],
      "name": "leaveRecords",
      "outputs": [
        {
          "internalType": "uint256",
          "name": "leaveDays",
          "type": "uint256"
        },
        {
          "internalType": "string",
          "name": "reason",
          "type": "string"
        },
        {
          "internalType": "uint256",
          "name": "timestamp",
          "type": "uint256"
        }
      ],
      "stateMutability": "view",
      "type": "function"
    },
    {
      "inputs": [],
      "name": "owner",
      "outputs": [
        {
          "internalType": "address",
          "name": "",
          "type": "address"
        }
      ],
      "stateMutability": "view",
      "type": "function"
    },
    {
      "inputs": [],
      "name": "renounceOwnership",
      "outputs": [],
      "stateMutability": "nonpayable",
      "type": "function"
    },
    {
      "inputs": [
        {
          "internalType": "string",
          "name": "",
          "type": "string"
        },
        {
          "internalType": "uint256",
          "name": "",
          "type": "uint256"
        }
      ],
      "name": "statusRecords",
      "outputs": [
        {
          "internalType": "string",
          "name": "status",
          "type": "string"
        },
        {
          "internalType": "string",
          "name": "reason",
          "type": "string"
        },
        {
          "internalType": "uint256",
          "name": "timestamp",
          "type": "uint256"
        }
      ],
      "stateMutability": "view",
      "type": "function"
    },
    {
      "inputs": [
        {
          "internalType": "address",
          "name": "newOwner",
          "type": "address"
        }
      ],
      "name": "transferOwnership",
      "outputs": [],
      "stateMutability": "nonpayable",
      "type": "function"
    },
    {
      "inputs": [
        {
          "internalType": "string",
          "name": "employeeId",
          "type": "string"
        },
        {
          "internalType": "string",
          "name": "status",
          "type": "string"
        },
        {
          "internalType": "string",
          "name": "reason",
          "type": "string"
        }
      ],
      "name": "updateEmployeeStatus",
      "outputs": [],
      "stateMutability": "nonpayable",
      "type": "function"
    },
    {
      "inputs": [
        {
          "internalType": "string",
          "name": "employeeId",
          "type": "string"
        },
        {
          "internalType": "address",
          "name": "newWallet",
          "type": "address"
        }
      ],
      "name": "updateEmployeeWallet",
      "outputs": [],
      "stateMutability": "nonpayable",
      "type": "function"
    },
    {
      "inputs": [
        {
          "internalType": "address",
          "name": "",
          "type": "address"
        }
      ],
      "name": "walletToEmployeeId",
      "outputs": [
        {
          "internalType": "string",
          "name": "",
          "type": "string"
        }
      ],
      "stateMutability": "view",
      "type": "function"
    }
  ],
  "bytecode": "0x60806040523480156200001157600080fd5b5033600073ffffffffffffffffffffffffffffffffffffffff168173ffffffffffffffffffffffffffffffffffffffff1603620000885760006040517f1e4fbdf70000000000000000000000000000000000000000000000000000000081526004016200007f9190620001a9565b60405180910390fd5b6200009981620000a060201b60201c565b50620001c6565b60008060009054906101000a900473ffffffffffffffffffffffffffffffffffffffff169050816000806101000a81548173ffffffffffffffffffffffffffffffffffffffff021916908373ffffffffffffffffffffffffffffffffffffffff1602179055508173ffffffffffffffffffffffffffffffffffffffff168173ffffffffffffffffffffffffffffffffffffffff167f8be0079c531659141344cd1fd0a4f28419497f9722a3daafe3b4186f6b6457e060405160405180910390a35050565b600073ffffffffffffffffffffffffffffffffffffffff82169050919050565b6000620001918262000164565b9050919050565b620001a38162000184565b82525050565b6000602082019050620001c0600083018462000198565b92915050565b61322f80620001d66000396000f3fe608060405234801561001057600080fd5b50600436106101005760003560e01c806382b6f77a11610097578063d410e0ca11610066578063d410e0ca146102ec578063e44c6c9314610308578063f2fde38b1461033a578063faa96d721461035657610100565b806382b6f77a146102395780638da5cb5b146102695780639b1b6b7514610287578063bd7b7102146102b757610100565b80636e9764d8116100d35780636e9764d81461019d5780636eb40ff9146101cf578063715018a6146101ff5780637a0e01c71461020957610100565b806330f73abf146101055780634996f84614610121578063557bc070146101515780636499aa5714610181575b600080fd5b61011f600480360381019061011a91906122cf565b610372565b005b61013b6004803603810190610136919061235a565b6104c7565b60405161014891906123be565b60405180910390f35b61016b6004803603810190610166919061235a565b6104fd565b6040516101789190612580565b60405180910390f35b61019b60048036038101906101969190612600565b610713565b005b6101b760048036038101906101b2919061265c565b610a0e565b6040516101c693929190612711565b60405180910390f35b6101e960048036038101906101e49190612756565b610b7b565b6040516101f69190612837565b60405180910390f35b610207610ff4565b005b610223600480360381019061021e919061235a565b611008565b6040516102309190612837565b60405180910390f35b610253600480360381019061024e919061235a565b6113db565b604051610260919061296b565b60405180910390f35b610271611569565b60405161027e919061299c565b60405180910390f35b6102a1600480360381019061029c9190612756565b611592565b6040516102ae91906129b7565b60405180910390f35b6102d160048036038101906102cc919061235a565b611632565b6040516102e3969594939291906129d9565b60405180910390f35b61030660048036038101906103019190612a5d565b61194c565b005b610322600480360381019061031d919061265c565b611aad565b60405161033193929190612b04565b60405180910390f35b610354600480360381019061034f9190612756565b611b92565b005b610370600480360381019061036b9190612b42565b611c18565b005b61037a611f43565b60038360405161038a9190612c97565b908152602001604051809103902060009054906101000a900460ff166103e5576040517f08c379a00000000000000000000000000000000000000000000000000000000081526004016103dc90612cfa565b60405180910390fd5b6005836040516103f59190612c97565b908152602001604051809103902060405180606001604052808481526020018381526020014281525090806001815401808255809150506001900390600052602060002090600302016000909190919091506000820151816000015560208201518160010190816104669190612f26565b50604082015181600201555050826040516104819190612c97565b60405180910390207f2ef7e9859551e08c78947cc6fb66953221676d64ea26a9c093192b71519fae4a83836040516104ba929190612ff8565b60405180910390a2505050565b6003818051602081018201805184825260208301602085012081835280955050505050506000915054906101000a900460ff1681565b606060038260405161050f9190612c97565b908152602001604051809103902060009054906101000a900460ff1661056a576040517f08c379a000000000000000000000000000000000000000000000000000000000815260040161056190612cfa565b60405180910390fd5b60048260405161057a9190612c97565b9081526020016040518091039020805480602002602001604051908101604052809291908181526020016000905b8282101561070857838290600052602060002090600302016040518060600160405290816000820180546105db90612d49565b80601f016020809104026020016040519081016040528092919081815260200182805461060790612d49565b80156106545780601f1061062957610100808354040283529160200191610654565b820191906000526020600020905b81548152906001019060200180831161063757829003601f168201915b5050505050815260200160018201805461066d90612d49565b80601f016020809104026020016040519081016040528092919081815260200182805461069990612d49565b80156106e65780601f106106bb576101008083540402835291602001916106e6565b820191906000526020600020905b8154815290600101906020018083116106c957829003601f168201915b50505050508152602001600282015481525050815260200190600101906105a8565b505050509050919050565b61071b611f43565b60038260405161072b9190612c97565b908152602001604051809103902060009054906101000a900460ff16610786576040517f08c379a000000000000000000000000000000000000000000000000000000000815260040161077d90612cfa565b60405180910390fd5b60006001836040516107989190612c97565b908152602001604051809103902060020160009054906101000a900473ffffffffffffffffffffffffffffffffffffffff169050600073ffffffffffffffffffffffffffffffffffffffff168173ffffffffffffffffffffffffffffffffffffffff161461084c57600260008273ffffffffffffffffffffffffffffffffffffffff1673ffffffffffffffffffffffffffffffffffffffff168152602001908152602001600020600061084b9190612096565b5b600073ffffffffffffffffffffffffffffffffffffffff168273ffffffffffffffffffffffffffffffffffffffff161461095c576000600260008473ffffffffffffffffffffffffffffffffffffffff1673ffffffffffffffffffffffffffffffffffffffff16815260200190815260200160002080546108cc90612d49565b90501461090e576040517f08c379a00000000000000000000000000000000000000000000000000000000081526004016109059061309a565b60405180910390fd5b82600260008473ffffffffffffffffffffffffffffffffffffffff1673ffffffffffffffffffffffffffffffffffffffff168152602001908152602001600020908161095a9190612f26565b505b8160018460405161096d9190612c97565b908152602001604051809103902060020160006101000a81548173ffffffffffffffffffffffffffffffffffffffff021916908373ffffffffffffffffffffffffffffffffffffffff160217905550826040516109ca9190612c97565b60405180910390207f68272d2b69c50c09df1756d232ed29209c58f0e6cdf60af6d5cdd804369baef083604051610a01919061299c565b60405180910390a2505050565b6004828051602081018201805184825260208301602085012081835280955050505050508181548110610a4057600080fd5b906000526020600020906003020160009150915050806000018054610a6490612d49565b80601f0160208091040260200160405190810160405280929190818152602001828054610a9090612d49565b8015610add5780601f10610ab257610100808354040283529160200191610add565b820191906000526020600020905b815481529060010190602001808311610ac057829003601f168201915b505050505090806001018054610af290612d49565b80601f0160208091040260200160405190810160405280929190818152602001828054610b1e90612d49565b8015610b6b5780601f10610b4057610100808354040283529160200191610b6b565b820191906000526020600020905b815481529060010190602001808311610b4e57829003601f168201915b5050505050908060020154905083565b610b836120d6565b6000600260008473ffffffffffffffffffffffffffffffffffffffff1673ffffffffffffffffffffffffffffffffffffffff1681526020019081526020016000208054610bcf90612d49565b80601f0160208091040260200160405190810160405280929190818152602001828054610bfb90612d49565b8015610c485780601f10610c1d57610100808354040283529160200191610c48565b820191906000526020600020905b815481529060010190602001808311610c2b57829003601f168201915b505050505090506000815111610c93576040517f08c379a0000000000000000000000000000000000000000000000000000000008152600401610c8a90613106565b60405180910390fd5b600181604051610ca39190612c97565b90815260200160405180910390206040518060c0016040529081600082018054610ccc90612d49565b80601f0160208091040260200160405190810160405280929190818152602001828054610cf890612d49565b8015610d455780601f10610d1a57610100808354040283529160200191610d45565b820191906000526020600020905b815481529060010190602001808311610d2857829003601f168201915b50505050508152602001600182018054610d5e90612d49565b80601f0160208091040260200160405190810160405280929190818152602001828054610d8a90612d49565b8015610dd75780601f10610dac57610100808354040283529160200191610dd7565b820191906000526020600020905b815481529060010190602001808311610dba57829003601f168201915b505050505081526020016002820160009054906101000a900473ffffffffffffffffffffffffffffffffffffffff1673ffffffffffffffffffffffffffffffffffffffff1673ffffffffffffffffffffffffffffffffffffffff168152602001600382018054610e4690612d49565b80601f0160208091040260200160405190810160405280929190818152602001828054610e7290612d49565b8015610ebf5780601f10610e9457610100808354040283529160200191610ebf565b820191906000526020600020905b815481529060010190602001808311610ea257829003601f168201915b50505050508152602001600482018054610ed890612d49565b80601f0160208091040260200160405190810160405280929190818152602001828054610f0490612d49565b8015610f515780601f10610f2657610100808354040283529160200191610f51565b820191906000526020600020905b815481529060010190602001808311610f3457829003601f168201915b50505050508152602001600582018054610f6a90612d49565b80601f0160208091040260200160405190810160405280929190818152602001828054610f9690612d49565b8015610fe35780601f10610fb857610100808354040283529160200191610fe3565b820191906000526020600020905b815481529060010190602001808311610fc657829003601f168201915b505050505081525050915050919050565b610ffc611f43565b6110066000611fca565b565b6110106120d6565b6003826040516110209190612c97565b908152602001604051809103902060009054906101000a900460ff1661107b576040517f08c379a000000000000000000000000000000000000000000000000000000000815260040161107290612cfa565b60405180910390fd5b60018260405161108b9190612c97565b90815260200160405180910390206040518060c00160405290816000820180546110b490612d49565b80601f01602080910402602001604051908101604052809291908181526020018280546110e090612d49565b801561112d5780601f106111025761010080835404028352916020019161112d565b820191906000526020600020905b81548152906001019060200180831161111057829003601f168201915b5050505050815260200160018201805461114690612d49565b80601f016020809104026020016040519081016040528092919081815260200182805461117290612d49565b80156111bf5780601f10611194576101008083540402835291602001916111bf565b820191906000526020600020905b8154815290600101906020018083116111a257829003601f168201915b505050505081526020016002820160009054906101000a900473ffffffffffffffffffffffffffffffffffffffff1673ffffffffffffffffffffffffffffffffffffffff1673ffffffffffffffffffffffffffffffffffffffff16815260200160038201805461122e90612d49565b80601f016020809104026020016040519081016040528092919081815260200182805461125a90612d49565b80156112a75780601f1061127c576101008083540402835291602001916112a7565b820191906000526020600020905b81548152906001019060200180831161128a57829003601f168201915b505050505081526020016004820180546112c090612d49565b80601f01602080910402602001604051908101604052809291908181526020018280546112ec90612d49565b80156113395780601f1061130e57610100808354040283529160200191611339565b820191906000526020600020905b81548152906001019060200180831161131c57829003601f168201915b5050505050815260200160058201805461135290612d49565b80601f016020809104026020016040519081016040528092919081815260200182805461137e90612d49565b80156113cb5780601f106113a0576101008083540402835291602001916113cb565b820191906000526020600020905b8154815290600101906020018083116113ae57829003601f168201915b5050505050815250509050919050565b60606003826040516113ed9190612c97565b908152602001604051809103902060009054906101000a900460ff16611448576040517f08c379a000000000000000000000000000000000000000000000000000000000815260040161143f90612cfa565b60405180910390fd5b6005826040516114589190612c97565b9081526020016040518091039020805480602002602001604051908101604052809291908181526020016000905b8282101561155e5783829060005260206000209060030201604051806060016040529081600082015481526020016001820180546114c390612d49565b80601f01602080910402602001604051908101604052809291908181526020018280546114ef90612d49565b801561153c5780601f106115115761010080835404028352916020019161153c565b820191906000526020600020905b81548152906001019060200180831161151f57829003601f168201915b5050505050815260200160028201548152505081526020019060010190611486565b505050509050919050565b60008060009054906101000a900473ffffffffffffffffffffffffffffffffffffffff16905090565b600260205280600052604060002060009150905080546115b190612d49565b80601f01602080910402602001604051908101604052809291908181526020018280546115dd90612d49565b801561162a5780601f106115ff5761010080835404028352916020019161162a565b820191906000526020600020905b81548152906001019060200180831161160d57829003601f168201915b505050505081565b60018180516020810182018051848252602083016020850120818352809550505050505060009150905080600001805461166b90612d49565b80601f016020809104026020016040519081016040528092919081815260200182805461169790612d49565b80156116e45780601f106116b9576101008083540402835291602001916116e4565b820191906000526020600020905b8154815290600101906020018083116116c757829003601f168201915b5050505050908060010180546116f990612d49565b80601f016020809104026020016040519081016040528092919081815260200182805461172590612d49565b80156117725780601f1061174757610100808354040283529160200191611772565b820191906000526020600020905b81548152906001019060200180831161175557829003601f168201915b5050505050908060020160009054906101000a900473ffffffffffffffffffffffffffffffffffffffff16908060030180546117ad90612d49565b80601f01602080910402602001604051908101604052809291908181526020018280546117d990612d49565b80156118265780601f106117fb57610100808354040283529160200191611826565b820191906000526020600020905b81548152906001019060200180831161180957829003601f168201915b50505050509080600401805461183b90612d49565b80601f016020809104026020016040519081016040528092919081815260200182805461186790612d49565b80156118b45780601f10611889576101008083540402835291602001916118b4565b820191906000526020600020905b81548152906001019060200180831161189757829003601f168201915b5050505050908060050180546118c990612d49565b80601f01602080910402602001604051908101604052809291908181526020018280546118f590612d49565b80156119425780601f1061191757610100808354040283529160200191611942565b820191906000526020600020905b81548152906001019060200180831161192557829003601f168201915b5050505050905086565b611954611f43565b6003836040516119649190612c97565b908152602001604051809103902060009054906101000a900460ff166119bf576040517f08c379a00000000000000000000000000000000000000000000000000000000081526004016119b690612cfa565b60405180910390fd5b6004836040516119cf9190612c97565b908152602001604051809103902060405180606001604052808481526020018381526020014281525090806001815401808255809150506001900390600052602060002090600302016000909190919091506000820151816000019081611a369190612f26565b506020820151816001019081611a4c9190612f26565b5060408201518160020155505082604051611a679190612c97565b60405180910390207fcbeaf510d56f936a8109c5cdc8209a247ecb3a192254dcad7c5083478b6c3f3d8383604051611aa0929190613126565b60405180910390a2505050565b6005828051602081018201805184825260208301602085012081835280955050505050508181548110611adf57600080fd5b906000526020600020906003020160009150915050806000015490806001018054611b0990612d49565b80601f0160208091040260200160405190810160405280929190818152602001828054611b3590612d49565b8015611b825780601f10611b5757610100808354040283529160200191611b82565b820191906000526020600020905b815481529060010190602001808311611b6557829003601f168201915b5050505050908060020154905083565b611b9a611f43565b600073ffffffffffffffffffffffffffffffffffffffff168173ffffffffffffffffffffffffffffffffffffffff1603611c0c5760006040517f1e4fbdf7000000000000000000000000000000000000000000000000000000008152600401611c03919061299c565b60405180910390fd5b611c1581611fca565b50565b611c20611f43565b600386604051611c309190612c97565b908152602001604051809103902060009054906101000a900460ff1615611c8c576040517f08c379a0000000000000000000000000000000000000000000000000000000008152600401611c83906131a9565b60405180910390fd5b600073ffffffffffffffffffffffffffffffffffffffff168473ffffffffffffffffffffffffffffffffffffffff1614611d9c576000600260008673ffffffffffffffffffffffffffffffffffffffff1673ffffffffffffffffffffffffffffffffffffffff1681526020019081526020016000208054611d0c90612d49565b905014611d4e576040517f08c379a0000000000000000000000000000000000000000000000000000000008152600401611d459061309a565b60405180910390fd5b85600260008673ffffffffffffffffffffffffffffffffffffffff1673ffffffffffffffffffffffffffffffffffffffff1681526020019081526020016000209081611d9a9190612f26565b505b6040518060c001604052808781526020018681526020018573ffffffffffffffffffffffffffffffffffffffff16815260200184815260200183815260200182815250600187604051611def9190612c97565b90815260200160405180910390206000820151816000019081611e129190612f26565b506020820151816001019081611e289190612f26565b5060408201518160020160006101000a81548173ffffffffffffffffffffffffffffffffffffffff021916908373ffffffffffffffffffffffffffffffffffffffff1602179055506060820151816003019081611e859190612f26565b506080820151816004019081611e9b9190612f26565b5060a0820151816005019081611eb19190612f26565b509050506001600387604051611ec79190612c97565b908152602001604051809103902060006101000a81548160ff02191690831515021790555085604051611efa9190612c97565b60405180910390207fb04c25fddb3c0166b15378f6ae0d6923361584448224b91fb410137f498cc3428686604051611f339291906131c9565b60405180910390a2505050505050565b611f4b61208e565b73ffffffffffffffffffffffffffffffffffffffff16611f69611569565b73ffffffffffffffffffffffffffffffffffffffff1614611fc857611f8c61208e565b6040517f118cdaa7000000000000000000000000000000000000000000000000000000008152600401611fbf919061299c565b60405180910390fd5b565b60008060009054906101000a900473ffffffffffffffffffffffffffffffffffffffff169050816000806101000a81548173ffffffffffffffffffffffffffffffffffffffff021916908373ffffffffffffffffffffffffffffffffffffffff1602179055508173ffffffffffffffffffffffffffffffffffffffff168173ffffffffffffffffffffffffffffffffffffffff167f8be0079c531659141344cd1fd0a4f28419497f9722a3daafe3b4186f6b6457e060405160405180910390a35050565b600033905090565b5080546120a290612d49565b6000825580601f106120b457506120d3565b601f0160209004906000526020600020908101906120d29190612122565b5b50565b6040518060c001604052806060815260200160608152602001600073ffffffffffffffffffffffffffffffffffffffff1681526020016060815260200160608152602001606081525090565b5b8082111561213b576000816000905550600101612123565b5090565b6000604051905090565b600080fd5b600080fd5b600080fd5b600080fd5b6000601f19601f8301169050919050565b7f4e487b7100000000000000000000000000000000000000000000000000000000600052604160045260246000fd5b6121a68261215d565b810181811067ffffffffffffffff821117156121c5576121c461216e565b5b80604052505050565b60006121d861213f565b90506121e4828261219d565b919050565b600067ffffffffffffffff8211156122045761220361216e565b5b61220d8261215d565b9050602081019050919050565b82818337600083830152505050565b600061223c612237846121e9565b6121ce565b90508281526020810184848401111561225857612257612158565b5b61226384828561221a565b509392505050565b600082601f8301126122805761227f612153565b5b8135612290848260208601612229565b91505092915050565b6000819050919050565b6122ac81612299565b81146122b757600080fd5b50565b6000813590506122c9816122a3565b92915050565b6000806000606084860312156122e8576122e7612149565b5b600084013567ffffffffffffffff8111156123065761230561214e565b5b6123128682870161226b565b9350506020612323868287016122ba565b925050604084013567ffffffffffffffff8111156123445761234361214e565b5b6123508682870161226b565b9150509250925092565b6000602082840312156123705761236f612149565b5b600082013567ffffffffffffffff81111561238e5761238d61214e565b5b61239a8482850161226b565b91505092915050565b60008115159050919050565b6123b8816123a3565b82525050565b60006020820190506123d360008301846123af565b92915050565b600081519050919050565b600082825260208201905092915050565b6000819050602082019050919050565b600081519050919050565b600082825260208201905092915050565b60005b8381101561243f578082015181840152602081019050612424565b60008484015250505050565b600061245682612405565b6124608185612410565b9350612470818560208601612421565b6124798161215d565b840191505092915050565b61248d81612299565b82525050565b600060608301600083015184820360008601526124b0828261244b565b915050602083015184820360208601526124ca828261244b565b91505060408301516124df6040860182612484565b508091505092915050565b60006124f68383612493565b905092915050565b6000602082019050919050565b6000612516826123d9565b61252081856123e4565b935083602082028501612532856123f5565b8060005b8581101561256e578484038952815161254f85826124ea565b945061255a836124fe565b925060208a01995050600181019050612536565b50829750879550505050505092915050565b6000602082019050818103600083015261259a818461250b565b905092915050565b600073ffffffffffffffffffffffffffffffffffffffff82169050919050565b60006125cd826125a2565b9050919050565b6125dd816125c2565b81146125e857600080fd5b50565b6000813590506125fa816125d4565b92915050565b6000806040838503121561261757612616612149565b5b600083013567ffffffffffffffff8111156126355761263461214e565b5b6126418582860161226b565b9250506020612652858286016125eb565b9150509250929050565b6000806040838503121561267357612672612149565b5b600083013567ffffffffffffffff8111156126915761269061214e565b5b61269d8582860161226b565b92505060206126ae858286016122ba565b9150509250929050565b600082825260208201905092915050565b60006126d482612405565b6126de81856126b8565b93506126ee818560208601612421565b6126f78161215d565b840191505092915050565b61270b81612299565b82525050565b6000606082019050818103600083015261272b81866126c9565b9050818103602083015261273f81856126c9565b905061274e6040830184612702565b949350505050565b60006020828403121561276c5761276b612149565b5b600061277a848285016125eb565b91505092915050565b61278c816125c2565b82525050565b600060c08301600083015184820360008601526127af828261244b565b915050602083015184820360208601526127c9828261244b565b91505060408301516127de6040860182612783565b50606083015184820360608601526127f6828261244b565b91505060808301518482036080860152612810828261244b565b91505060a083015184820360a086015261282a828261244b565b9150508091505092915050565b600060208201905081810360008301526128518184612792565b905092915050565b600081519050919050565b600082825260208201905092915050565b6000819050602082019050919050565b600060608301600083015161289d6000860182612484565b50602083015184820360208601526128b5828261244b565b91505060408301516128ca6040860182612484565b508091505092915050565b60006128e18383612885565b905092915050565b6000602082019050919050565b600061290182612859565b61290b8185612864565b93508360208202850161291d85612875565b8060005b85811015612959578484038952815161293a85826128d5565b9450612945836128e9565b925060208a01995050600181019050612921565b50829750879550505050505092915050565b6000602082019050818103600083015261298581846128f6565b905092915050565b612996816125c2565b82525050565b60006020820190506129b1600083018461298d565b92915050565b600060208201905081810360008301526129d181846126c9565b905092915050565b600060c08201905081810360008301526129f381896126c9565b90508181036020830152612a0781886126c9565b9050612a16604083018761298d565b8181036060830152612a2881866126c9565b90508181036080830152612a3c81856126c9565b905081810360a0830152612a5081846126c9565b9050979650505050505050565b600080600060608486031215612a7657612a75612149565b5b600084013567ffffffffffffffff811115612a9457612a9361214e565b5b612aa08682870161226b565b935050602084013567ffffffffffffffff811115612ac157612ac061214e565b5b612acd8682870161226b565b925050604084013567ffffffffffffffff811115612aee57612aed61214e565b5b612afa8682870161226b565b9150509250925092565b6000606082019050612b196000830186612702565b8181036020830152612b2b81856126c9565b9050612b3a6040830184612702565b949350505050565b60008060008060008060c08789031215612b5f57612b5e612149565b5b600087013567ffffffffffffffff811115612b7d57612b7c61214e565b5b612b8989828a0161226b565b965050602087013567ffffffffffffffff811115612baa57612ba961214e565b5b612bb689828a0161226b565b9550506040612bc789828a016125eb565b945050606087013567ffffffffffffffff811115612be857612be761214e565b5b612bf489828a0161226b565b935050608087013567ffffffffffffffff811115612c1557612c1461214e565b5b612c2189828a0161226b565b92505060a087013567ffffffffffffffff811115612c4257612c4161214e565b5b612c4e89828a0161226b565b9150509295509295509295565b600081905092915050565b6000612c7182612405565b612c7b8185612c5b565b9350612c8b818560208601612421565b80840191505092915050565b6000612ca38284612c66565b915081905092915050565b7f456d706c6f79656520646f6573206e6f74206578697374000000000000000000600082015250565b6000612ce46017836126b8565b9150612cef82612cae565b602082019050919050565b60006020820190508181036000830152612d1381612cd7565b9050919050565b7f4e487b7100000000000000000000000000000000000000000000000000000000600052602260045260246000fd5b60006002820490506001821680612d6157607f821691505b602082108103612d7457612d73612d1a565b5b50919050565b60008190508160005260206000209050919050565b60006020601f8301049050919050565b600082821b905092915050565b600060088302612ddc7fffffffffffffffffffffffffffffffffffffffffffffffffffffffffffffffff82612d9f565b612de68683612d9f565b95508019841693508086168417925050509392505050565b6000819050919050565b6000612e23612e1e612e1984612299565b612dfe565b612299565b9050919050565b6000819050919050565b612e3d83612e08565b612e51612e4982612e2a565b848454612dac565b825550505050565b600090565b612e66612e59565b612e71818484612e34565b505050565b5b81811015612e9557612e8a600082612e5e565b600181019050612e77565b5050565b601f821115612eda57612eab81612d7a565b612eb484612d8f565b81016020851015612ec3578190505b612ed7612ecf85612d8f565b830182612e76565b50505b505050565b600082821c905092915050565b6000612efd60001984600802612edf565b1980831691505092915050565b6000612f168383612eec565b9150826002028217905092915050565b612f2f82612405565b67ffffffffffffffff811115612f4857612f4761216e565b5b612f528254612d49565b612f5d828285612e99565b600060209050601f831160018114612f905760008415612f7e578287015190505b612f888582612f0a565b865550612ff0565b601f198416612f9e86612d7a565b60005b82811015612fc657848901518255600182019150602085019450602081019050612fa1565b86831015612fe35784890151612fdf601f891682612eec565b8355505b6001600288020188555050505b505050505050565b600060408201905061300d6000830185612702565b818103602083015261301f81846126c9565b90509392505050565b7f57616c6c657420616c72656164792061737369676e656420746f20616e20656d60008201527f706c6f7965650000000000000000000000000000000000000000000000000000602082015250565b60006130846026836126b8565b915061308f82613028565b604082019050919050565b600060208201905081810360008301526130b381613077565b9050919050565b7f4e6f20656d706c6f796565207769746820746869732077616c6c657400000000600082015250565b60006130f0601c836126b8565b91506130fb826130ba565b602082019050919050565b6000602082019050818103600083015261311f816130e3565b9050919050565b6000604082019050818103600083015261314081856126c9565b9050818103602083015261315481846126c9565b90509392505050565b7f456d706c6f79656520494420616c726561647920657869737473000000000000600082015250565b6000613193601a836126b8565b915061319e8261315d565b602082019050919050565b600060208201905081810360008301526131c281613186565b9050919050565b600060408201905081810360008301526131e381856126c9565b90506131f2602083018461298d565b939250505056fea2646970667358221220533b8cefa318bb52a0e3dae33e47509c07b609aab1dd075cabe564661cb2366c64736f6c63430008140033",
  "linkReferences": {},
  "deployedLinkReferences": {}
}