{
  "_format": "hh-sol-artifact-1",
  "contractName": "Employee",
  "sourceName": "contracts/Employee.sol",
  "abi": [
    {
      "inputs": [],
      "stateMutability": "nonpayable",
      "type": "constructor"
    },
    {
      "inputs": [
        {
          "internalType": "address",
          "name": "owner",
          "type": "address"
        }
      ],
      "name": "OwnableInvalidOwner",
      "type": "error"
    },
    {
      "inputs": [
        {
          "internalType": "address",
          "name": "account",
          "type": "address"
        }
      ],
      "name": "OwnableUnauthorizedAccount",
      "type": "error"
    },
    {
      "anonymous": false,
      "inputs": [
        {
          "indexed": true,
          "internalType": "string",
          "name": "employeeId",
          "type": "string"
        },
        {
          "indexed": false,
          "internalType": "string",
          "name": "name",
          "type": "string"
        },
        {
          "indexed": false,
          "internalType": "address",
          "name": "wallet",
          "type": "address"
        }
      ],
      "name": "EmployeeAdded",
      "type": "event"
    },
    {
      "anonymous": false,
      "inputs": [
        {
          "indexed": true,
          "internalType": "string",
          "name": "employeeId",
          "type": "string"
        },
        {
          "indexed": false,
          "internalType": "address",
          "name": "newWallet",
          "type": "address"
        }
      ],
      "name": "EmployeeWalletUpdated",
      "type": "event"
    },
    {
      "anonymous": false,
      "inputs": [
        {
          "indexed": true,
          "internalType": "string",
          "name": "employeeId",
          "type": "string"
        },
        {
          "indexed": false,
          "internalType": "uint256",
          "name": "leaveDays",
          "type": "uint256"
        },
        {
          "indexed": false,
          "internalType": "string",
          "name": "reason",
          "type": "string"
        }
      ],
      "name": "LeaveApproved",
      "type": "event"
    },
    {
      "anonymous": false,
      "inputs": [
        {
          "indexed": true,
          "internalType": "address",
          "name": "previousOwner",
          "type": "address"
        },
        {
          "indexed": true,
          "internalType": "address",
          "name": "newOwner",
          "type": "address"
        }
      ],
      "name": "OwnershipTransferred",
      "type": "event"
    },
    {
      "inputs": [
        {
          "internalType": "string",
          "name": "employeeId",
          "type": "string"
        },
        {
          "internalType": "string",
          "name": "name",
          "type": "string"
        },
        {
          "internalType": "address",
          "name": "wallet",
          "type": "address"
        },
        {
          "internalType": "string",
          "name": "role",
          "type": "string"
        },
        {
          "internalType": "string",
          "name": "doj",
          "type": "string"
        },
        {
          "internalType": "string",
          "name": "department",
          "type": "string"
        }
      ],
      "name": "addEmployee",
      "outputs": [],
      "stateMutability": "nonpayable",
      "type": "function"
    },
    {
      "inputs": [
        {
          "internalType": "string",
          "name": "",
          "type": "string"
        }
      ],
      "name": "employeesByID",
      "outputs": [
        {
          "internalType": "string",
          "name": "employeeId",
          "type": "string"
        },
        {
          "internalType": "string",
          "name": "name",
          "type": "string"
        },
        {
          "internalType": "address",
          "name": "wallet",
          "type": "address"
        },
        {
          "internalType": "string",
          "name": "role",
          "type": "string"
        },
        {
          "internalType": "string",
          "name": "doj",
          "type": "string"
        },
        {
          "internalType": "string",
          "name": "department",
          "type": "string"
        }
      ],
      "stateMutability": "view",
      "type": "function"
    },
    {
      "inputs": [
        {
          "internalType": "string",
          "name": "employeeId",
          "type": "string"
        }
      ],
      "name": "getEmployeeById",
      "outputs": [
        {
          "components": [
            {
              "internalType": "string",
              "name": "employeeId",
              "type": "string"
            },
            {
              "internalType": "string",
              "name": "name",
              "type": "string"
            },
            {
              "internalType": "address",
              "name": "wallet",
              "type": "address"
            },
            {
              "internalType": "string",
              "name": "role",
              "type": "string"
            },
            {
              "internalType": "string",
              "name": "doj",
              "type": "string"
            },
            {
              "internalType": "string",
              "name": "department",
              "type": "string"
            }
          ],
          "internalType": "struct Employee.Record",
          "name": "",
          "type": "tuple"
        }
      ],
      "stateMutability": "view",
      "type": "function"
    },
    {
      "inputs": [
        {
          "internalType": "address",
          "name": "wallet",
          "type": "address"
        }
      ],
      "name": "getEmployeeByWallet",
      "outputs": [
        {
          "components": [
            {
              "internalType": "string",
              "name": "employeeId",
              "type": "string"
            },
            {
              "internalType": "string",
              "name": "name",
              "type": "string"
            },
            {
              "internalType": "address",
              "name": "wallet",
              "type": "address"
            },
            {
              "internalType": "string",
              "name": "role",
              "type": "string"
            },
            {
              "internalType": "string",
              "name": "doj",
              "type": "string"
            },
            {
              "internalType": "string",
              "name": "department",
              "type": "string"
            }
          ],
          "internalType": "struct Employee.Record",
          "name": "",
          "type": "tuple"
        }
      ],
      "stateMutability": "view",
      "type": "function"
    },
    {
      "inputs": [
        {
          "internalType": "string",
          "name": "employeeId",
          "type": "string"
        }
      ],
      "name": "getLeaveRecords",
      "outputs": [
        {
          "components": [
            {
              "internalType": "uint256",
              "name": "leaveDays",
              "type": "uint256"
            },
            {
              "internalType": "string",
              "name": "reason",
              "type": "string"
            },
            {
              "internalType": "uint256",
              "name": "timestamp",
              "type": "uint256"
            }
          ],
          "internalType": "struct Employee.LeaveRecord[]",
          "name": "",
          "type": "tuple[]"
        }
      ],
      "stateMutability": "view",
      "type": "function"
    },
    {
      "inputs": [
        {
          "internalType": "string",
          "name": "",
          "type": "string"
        }
      ],
      "name": "isEmployee",
      "outputs": [
        {
          "internalType": "bool",
          "name": "",
          "type": "bool"
        }
      ],
      "stateMutability": "view",
      "type": "function"
    },
    {
      "inputs": [
        {
          "internalType": "string",
          "name": "employeeId",
          "type": "string"
        },
        {
          "internalType": "uint256",
          "name": "leaveDays",
          "type": "uint256"
        },
        {
          "internalType": "string",
          "name": "reason",
          "type": "string"
        }
      ],
      "name": "leaveApproved",
      "outputs": [],
      "stateMutability": "nonpayable",
      "type": "function"
    },
    {
      "inputs": [
        {
          "internalType": "string",
          "name": "",
          "type": "string"
        },
        {
          "internalType": "uint256",
          "name": "",
          "type": "uint256"
        }
      ],
      "name": "leaveRecords",
      "outputs": [
        {
          "internalType": "uint256",
          "name": "leaveDays",
          "type": "uint256"
        },
        {
          "internalType": "string",
          "name": "reason",
          "type": "string"
        },
        {
          "internalType": "uint256",
          "name": "timestamp",
          "type": "uint256"
        }
      ],
      "stateMutability": "view",
      "type": "function"
    },
    {
      "inputs": [],
      "name": "owner",
      "outputs": [
        {
          "internalType": "address",
          "name": "",
          "type": "address"
        }
      ],
      "stateMutability": "view",
      "type": "function"
    },
    {
      "inputs": [],
      "name": "renounceOwnership",
      "outputs": [],
      "stateMutability": "nonpayable",
      "type": "function"
    },
    {
      "inputs": [
        {
          "internalType": "address",
          "name": "newOwner",
          "type": "address"
        }
      ],
      "name": "transferOwnership",
      "outputs": [],
      "stateMutability": "nonpayable",
      "type": "function"
    },
    {
      "inputs": [
        {
          "internalType": "string",
          "name": "employeeId",
          "type": "string"
        },
        {
          "internalType": "address",
          "name": "newWallet",
          "type": "address"
        }
      ],
      "name": "updateEmployeeWallet",
      "outputs": [],
      "stateMutability": "nonpayable",
      "type": "function"
    },
    {
      "inputs": [
        {
          "internalType": "address",
          "name": "",
          "type": "address"
        }
      ],
      "name": "walletToEmployeeId",
      "outputs": [
        {
          "internalType": "string",
          "name": "",
          "type": "string"
        }
      ],
      "stateMutability": "view",
      "type": "function"
    }
  ],
  "bytecode": "0x60806040523480156200001157600080fd5b5033600073ffffffffffffffffffffffffffffffffffffffff168173ffffffffffffffffffffffffffffffffffffffff1603620000885760006040517f1e4fbdf70000000000000000000000000000000000000000000000000000000081526004016200007f9190620001a9565b60405180910390fd5b6200009981620000a060201b60201c565b50620001c6565b60008060009054906101000a900473ffffffffffffffffffffffffffffffffffffffff169050816000806101000a81548173ffffffffffffffffffffffffffffffffffffffff021916908373ffffffffffffffffffffffffffffffffffffffff1602179055508173ffffffffffffffffffffffffffffffffffffffff168173ffffffffffffffffffffffffffffffffffffffff167f8be0079c531659141344cd1fd0a4f28419497f9722a3daafe3b4186f6b6457e060405160405180910390a35050565b600073ffffffffffffffffffffffffffffffffffffffff82169050919050565b6000620001918262000164565b9050919050565b620001a38162000184565b82525050565b6000602082019050620001c0600083018462000198565b92915050565b612a3e80620001d66000396000f3fe608060405234801561001057600080fd5b50600436106100cf5760003560e01c806382b6f77a1161008c578063bd7b710211610066578063bd7b710214610224578063e44c6c9314610259578063f2fde38b1461028b578063faa96d72146102a7576100cf565b806382b6f77a146101a65780638da5cb5b146101d65780639b1b6b75146101f4576100cf565b806330f73abf146100d45780634996f846146100f05780636499aa57146101205780636eb40ff91461013c578063715018a61461016c5780637a0e01c714610176575b600080fd5b6100ee60048036038101906100e99190611d3c565b6102c3565b005b61010a60048036038101906101059190611dc7565b610418565b6040516101179190611e2b565b60405180910390f35b61013a60048036038101906101359190611ea4565b61044e565b005b61015660048036038101906101519190611f00565b610749565b6040516101639190612060565b60405180910390f35b610174610bc2565b005b610190600480360381019061018b9190611dc7565b610bd6565b60405161019d9190612060565b60405180910390f35b6101c060048036038101906101bb9190611dc7565b610fa9565b6040516101cd91906121a3565b60405180910390f35b6101de611137565b6040516101eb91906121d4565b60405180910390f35b61020e60048036038101906102099190611f00565b611160565b60405161021b9190612239565b60405180910390f35b61023e60048036038101906102399190611dc7565b611200565b6040516102509695949392919061225b565b60405180910390f35b610273600480360381019061026e91906122df565b61151a565b6040516102829392919061234a565b60405180910390f35b6102a560048036038101906102a09190611f00565b6115ff565b005b6102c160048036038101906102bc9190612388565b611685565b005b6102cb6119b0565b6003836040516102db91906124dd565b908152602001604051809103902060009054906101000a900460ff16610336576040517f08c379a000000000000000000000000000000000000000000000000000000000815260040161032d90612540565b60405180910390fd5b60048360405161034691906124dd565b908152602001604051809103902060405180606001604052808481526020018381526020014281525090806001815401808255809150506001900390600052602060002090600302016000909190919091506000820151816000015560208201518160010190816103b7919061276c565b50604082015181600201555050826040516103d291906124dd565b60405180910390207f2ef7e9859551e08c78947cc6fb66953221676d64ea26a9c093192b71519fae4a838360405161040b92919061283e565b60405180910390a2505050565b6003818051602081018201805184825260208301602085012081835280955050505050506000915054906101000a900460ff1681565b6104566119b0565b60038260405161046691906124dd565b908152602001604051809103902060009054906101000a900460ff166104c1576040517f08c379a00000000000000000000000000000000000000000000000000000000081526004016104b890612540565b60405180910390fd5b60006001836040516104d391906124dd565b908152602001604051809103902060020160009054906101000a900473ffffffffffffffffffffffffffffffffffffffff169050600073ffffffffffffffffffffffffffffffffffffffff168173ffffffffffffffffffffffffffffffffffffffff161461058757600260008273ffffffffffffffffffffffffffffffffffffffff1673ffffffffffffffffffffffffffffffffffffffff16815260200190815260200160002060006105869190611b03565b5b600073ffffffffffffffffffffffffffffffffffffffff168273ffffffffffffffffffffffffffffffffffffffff1614610697576000600260008473ffffffffffffffffffffffffffffffffffffffff1673ffffffffffffffffffffffffffffffffffffffff16815260200190815260200160002080546106079061258f565b905014610649576040517f08c379a0000000000000000000000000000000000000000000000000000000008152600401610640906128e0565b60405180910390fd5b82600260008473ffffffffffffffffffffffffffffffffffffffff1673ffffffffffffffffffffffffffffffffffffffff1681526020019081526020016000209081610695919061276c565b505b816001846040516106a891906124dd565b908152602001604051809103902060020160006101000a81548173ffffffffffffffffffffffffffffffffffffffff021916908373ffffffffffffffffffffffffffffffffffffffff1602179055508260405161070591906124dd565b60405180910390207f68272d2b69c50c09df1756d232ed29209c58f0e6cdf60af6d5cdd804369baef08360405161073c91906121d4565b60405180910390a2505050565b610751611b43565b6000600260008473ffffffffffffffffffffffffffffffffffffffff1673ffffffffffffffffffffffffffffffffffffffff168152602001908152602001600020805461079d9061258f565b80601f01602080910402602001604051908101604052809291908181526020018280546107c99061258f565b80156108165780601f106107eb57610100808354040283529160200191610816565b820191906000526020600020905b8154815290600101906020018083116107f957829003601f168201915b505050505090506000815111610861576040517f08c379a00000000000000000000000000000000000000000000000000000000081526004016108589061294c565b60405180910390fd5b60018160405161087191906124dd565b90815260200160405180910390206040518060c001604052908160008201805461089a9061258f565b80601f01602080910402602001604051908101604052809291908181526020018280546108c69061258f565b80156109135780601f106108e857610100808354040283529160200191610913565b820191906000526020600020905b8154815290600101906020018083116108f657829003601f168201915b5050505050815260200160018201805461092c9061258f565b80601f01602080910402602001604051908101604052809291908181526020018280546109589061258f565b80156109a55780601f1061097a576101008083540402835291602001916109a5565b820191906000526020600020905b81548152906001019060200180831161098857829003601f168201915b505050505081526020016002820160009054906101000a900473ffffffffffffffffffffffffffffffffffffffff1673ffffffffffffffffffffffffffffffffffffffff1673ffffffffffffffffffffffffffffffffffffffff168152602001600382018054610a149061258f565b80601f0160208091040260200160405190810160405280929190818152602001828054610a409061258f565b8015610a8d5780601f10610a6257610100808354040283529160200191610a8d565b820191906000526020600020905b815481529060010190602001808311610a7057829003601f168201915b50505050508152602001600482018054610aa69061258f565b80601f0160208091040260200160405190810160405280929190818152602001828054610ad29061258f565b8015610b1f5780601f10610af457610100808354040283529160200191610b1f565b820191906000526020600020905b815481529060010190602001808311610b0257829003601f168201915b50505050508152602001600582018054610b389061258f565b80601f0160208091040260200160405190810160405280929190818152602001828054610b649061258f565b8015610bb15780601f10610b8657610100808354040283529160200191610bb1565b820191906000526020600020905b815481529060010190602001808311610b9457829003601f168201915b505050505081525050915050919050565b610bca6119b0565b610bd46000611a37565b565b610bde611b43565b600382604051610bee91906124dd565b908152602001604051809103902060009054906101000a900460ff16610c49576040517f08c379a0000000000000000000000000000000000000000000000000000000008152600401610c4090612540565b60405180910390fd5b600182604051610c5991906124dd565b90815260200160405180910390206040518060c0016040529081600082018054610c829061258f565b80601f0160208091040260200160405190810160405280929190818152602001828054610cae9061258f565b8015610cfb5780601f10610cd057610100808354040283529160200191610cfb565b820191906000526020600020905b815481529060010190602001808311610cde57829003601f168201915b50505050508152602001600182018054610d149061258f565b80601f0160208091040260200160405190810160405280929190818152602001828054610d409061258f565b8015610d8d5780601f10610d6257610100808354040283529160200191610d8d565b820191906000526020600020905b815481529060010190602001808311610d7057829003601f168201915b505050505081526020016002820160009054906101000a900473ffffffffffffffffffffffffffffffffffffffff1673ffffffffffffffffffffffffffffffffffffffff1673ffffffffffffffffffffffffffffffffffffffff168152602001600382018054610dfc9061258f565b80601f0160208091040260200160405190810160405280929190818152602001828054610e289061258f565b8015610e755780601f10610e4a57610100808354040283529160200191610e75565b820191906000526020600020905b815481529060010190602001808311610e5857829003601f168201915b50505050508152602001600482018054610e8e9061258f565b80601f0160208091040260200160405190810160405280929190818152602001828054610eba9061258f565b8015610f075780601f10610edc57610100808354040283529160200191610f07565b820191906000526020600020905b815481529060010190602001808311610eea57829003601f168201915b50505050508152602001600582018054610f209061258f565b80601f0160208091040260200160405190810160405280929190818152602001828054610f4c9061258f565b8015610f995780601f10610f6e57610100808354040283529160200191610f99565b820191906000526020600020905b815481529060010190602001808311610f7c57829003601f168201915b5050505050815250509050919050565b6060600382604051610fbb91906124dd565b908152602001604051809103902060009054906101000a900460ff16611016576040517f08c379a000000000000000000000000000000000000000000000000000000000815260040161100d90612540565b60405180910390fd5b60048260405161102691906124dd565b9081526020016040518091039020805480602002602001604051908101604052809291908181526020016000905b8282101561112c5783829060005260206000209060030201604051806060016040529081600082015481526020016001820180546110919061258f565b80601f01602080910402602001604051908101604052809291908181526020018280546110bd9061258f565b801561110a5780601f106110df5761010080835404028352916020019161110a565b820191906000526020600020905b8154815290600101906020018083116110ed57829003601f168201915b5050505050815260200160028201548152505081526020019060010190611054565b505050509050919050565b60008060009054906101000a900473ffffffffffffffffffffffffffffffffffffffff16905090565b6002602052806000526040600020600091509050805461117f9061258f565b80601f01602080910402602001604051908101604052809291908181526020018280546111ab9061258f565b80156111f85780601f106111cd576101008083540402835291602001916111f8565b820191906000526020600020905b8154815290600101906020018083116111db57829003601f168201915b505050505081565b6001818051602081018201805184825260208301602085012081835280955050505050506000915090508060000180546112399061258f565b80601f01602080910402602001604051908101604052809291908181526020018280546112659061258f565b80156112b25780601f10611287576101008083540402835291602001916112b2565b820191906000526020600020905b81548152906001019060200180831161129557829003601f168201915b5050505050908060010180546112c79061258f565b80601f01602080910402602001604051908101604052809291908181526020018280546112f39061258f565b80156113405780601f1061131557610100808354040283529160200191611340565b820191906000526020600020905b81548152906001019060200180831161132357829003601f168201915b5050505050908060020160009054906101000a900473ffffffffffffffffffffffffffffffffffffffff169080600301805461137b9061258f565b80601f01602080910402602001604051908101604052809291908181526020018280546113a79061258f565b80156113f45780601f106113c9576101008083540402835291602001916113f4565b820191906000526020600020905b8154815290600101906020018083116113d757829003601f168201915b5050505050908060040180546114099061258f565b80601f01602080910402602001604051908101604052809291908181526020018280546114359061258f565b80156114825780601f1061145757610100808354040283529160200191611482565b820191906000526020600020905b81548152906001019060200180831161146557829003601f168201915b5050505050908060050180546114979061258f565b80601f01602080910402602001604051908101604052809291908181526020018280546114c39061258f565b80156115105780601f106114e557610100808354040283529160200191611510565b820191906000526020600020905b8154815290600101906020018083116114f357829003601f168201915b5050505050905086565b600482805160208101820180518482526020830160208501208183528095505050505050818154811061154c57600080fd5b9060005260206000209060030201600091509150508060000154908060010180546115769061258f565b80601f01602080910402602001604051908101604052809291908181526020018280546115a29061258f565b80156115ef5780601f106115c4576101008083540402835291602001916115ef565b820191906000526020600020905b8154815290600101906020018083116115d257829003601f168201915b5050505050908060020154905083565b6116076119b0565b600073ffffffffffffffffffffffffffffffffffffffff168173ffffffffffffffffffffffffffffffffffffffff16036116795760006040517f1e4fbdf700000000000000000000000000000000000000000000000000000000815260040161167091906121d4565b60405180910390fd5b61168281611a37565b50565b61168d6119b0565b60038660405161169d91906124dd565b908152602001604051809103902060009054906101000a900460ff16156116f9576040517f08c379a00000000000000000000000000000000000000000000000000000000081526004016116f0906129b8565b60405180910390fd5b600073ffffffffffffffffffffffffffffffffffffffff168473ffffffffffffffffffffffffffffffffffffffff1614611809576000600260008673ffffffffffffffffffffffffffffffffffffffff1673ffffffffffffffffffffffffffffffffffffffff16815260200190815260200160002080546117799061258f565b9050146117bb576040517f08c379a00000000000000000000000000000000000000000000000000000000081526004016117b2906128e0565b60405180910390fd5b85600260008673ffffffffffffffffffffffffffffffffffffffff1673ffffffffffffffffffffffffffffffffffffffff1681526020019081526020016000209081611807919061276c565b505b6040518060c001604052808781526020018681526020018573ffffffffffffffffffffffffffffffffffffffff1681526020018481526020018381526020018281525060018760405161185c91906124dd565b9081526020016040518091039020600082015181600001908161187f919061276c565b506020820151816001019081611895919061276c565b5060408201518160020160006101000a81548173ffffffffffffffffffffffffffffffffffffffff021916908373ffffffffffffffffffffffffffffffffffffffff16021790555060608201518160030190816118f2919061276c565b506080820151816004019081611908919061276c565b5060a082015181600501908161191e919061276c565b50905050600160038760405161193491906124dd565b908152602001604051809103902060006101000a81548160ff0219169083151502179055508560405161196791906124dd565b60405180910390207fb04c25fddb3c0166b15378f6ae0d6923361584448224b91fb410137f498cc34286866040516119a09291906129d8565b60405180910390a2505050505050565b6119b8611afb565b73ffffffffffffffffffffffffffffffffffffffff166119d6611137565b73ffffffffffffffffffffffffffffffffffffffff1614611a35576119f9611afb565b6040517f118cdaa7000000000000000000000000000000000000000000000000000000008152600401611a2c91906121d4565b60405180910390fd5b565b60008060009054906101000a900473ffffffffffffffffffffffffffffffffffffffff169050816000806101000a81548173ffffffffffffffffffffffffffffffffffffffff021916908373ffffffffffffffffffffffffffffffffffffffff1602179055508173ffffffffffffffffffffffffffffffffffffffff168173ffffffffffffffffffffffffffffffffffffffff167f8be0079c531659141344cd1fd0a4f28419497f9722a3daafe3b4186f6b6457e060405160405180910390a35050565b600033905090565b508054611b0f9061258f565b6000825580601f10611b215750611b40565b601f016020900490600052602060002090810190611b3f9190611b8f565b5b50565b6040518060c001604052806060815260200160608152602001600073ffffffffffffffffffffffffffffffffffffffff1681526020016060815260200160608152602001606081525090565b5b80821115611ba8576000816000905550600101611b90565b5090565b6000604051905090565b600080fd5b600080fd5b600080fd5b600080fd5b6000601f19601f8301169050919050565b7f4e487b7100000000000000000000000000000000000000000000000000000000600052604160045260246000fd5b611c1382611bca565b810181811067ffffffffffffffff82111715611c3257611c31611bdb565b5b80604052505050565b6000611c45611bac565b9050611c518282611c0a565b919050565b600067ffffffffffffffff821115611c7157611c70611bdb565b5b611c7a82611bca565b9050602081019050919050565b82818337600083830152505050565b6000611ca9611ca484611c56565b611c3b565b905082815260208101848484011115611cc557611cc4611bc5565b5b611cd0848285611c87565b509392505050565b600082601f830112611ced57611cec611bc0565b5b8135611cfd848260208601611c96565b91505092915050565b6000819050919050565b611d1981611d06565b8114611d2457600080fd5b50565b600081359050611d3681611d10565b92915050565b600080600060608486031215611d5557611d54611bb6565b5b600084013567ffffffffffffffff811115611d7357611d72611bbb565b5b611d7f86828701611cd8565b9350506020611d9086828701611d27565b925050604084013567ffffffffffffffff811115611db157611db0611bbb565b5b611dbd86828701611cd8565b9150509250925092565b600060208284031215611ddd57611ddc611bb6565b5b600082013567ffffffffffffffff811115611dfb57611dfa611bbb565b5b611e0784828501611cd8565b91505092915050565b60008115159050919050565b611e2581611e10565b82525050565b6000602082019050611e406000830184611e1c565b92915050565b600073ffffffffffffffffffffffffffffffffffffffff82169050919050565b6000611e7182611e46565b9050919050565b611e8181611e66565b8114611e8c57600080fd5b50565b600081359050611e9e81611e78565b92915050565b60008060408385031215611ebb57611eba611bb6565b5b600083013567ffffffffffffffff811115611ed957611ed8611bbb565b5b611ee585828601611cd8565b9250506020611ef685828601611e8f565b9150509250929050565b600060208284031215611f1657611f15611bb6565b5b6000611f2484828501611e8f565b91505092915050565b600081519050919050565b600082825260208201905092915050565b60005b83811015611f67578082015181840152602081019050611f4c565b60008484015250505050565b6000611f7e82611f2d565b611f888185611f38565b9350611f98818560208601611f49565b611fa181611bca565b840191505092915050565b611fb581611e66565b82525050565b600060c0830160008301518482036000860152611fd88282611f73565b91505060208301518482036020860152611ff28282611f73565b91505060408301516120076040860182611fac565b506060830151848203606086015261201f8282611f73565b915050608083015184820360808601526120398282611f73565b91505060a083015184820360a08601526120538282611f73565b9150508091505092915050565b6000602082019050818103600083015261207a8184611fbb565b905092915050565b600081519050919050565b600082825260208201905092915050565b6000819050602082019050919050565b6120b781611d06565b82525050565b60006060830160008301516120d560008601826120ae565b50602083015184820360208601526120ed8282611f73565b915050604083015161210260408601826120ae565b508091505092915050565b600061211983836120bd565b905092915050565b6000602082019050919050565b600061213982612082565b612143818561208d565b9350836020820285016121558561209e565b8060005b858110156121915784840389528151612172858261210d565b945061217d83612121565b925060208a01995050600181019050612159565b50829750879550505050505092915050565b600060208201905081810360008301526121bd818461212e565b905092915050565b6121ce81611e66565b82525050565b60006020820190506121e960008301846121c5565b92915050565b600082825260208201905092915050565b600061220b82611f2d565b61221581856121ef565b9350612225818560208601611f49565b61222e81611bca565b840191505092915050565b600060208201905081810360008301526122538184612200565b905092915050565b600060c08201905081810360008301526122758189612200565b905081810360208301526122898188612200565b905061229860408301876121c5565b81810360608301526122aa8186612200565b905081810360808301526122be8185612200565b905081810360a08301526122d28184612200565b9050979650505050505050565b600080604083850312156122f6576122f5611bb6565b5b600083013567ffffffffffffffff81111561231457612313611bbb565b5b61232085828601611cd8565b925050602061233185828601611d27565b9150509250929050565b61234481611d06565b82525050565b600060608201905061235f600083018661233b565b81810360208301526123718185612200565b9050612380604083018461233b565b949350505050565b60008060008060008060c087890312156123a5576123a4611bb6565b5b600087013567ffffffffffffffff8111156123c3576123c2611bbb565b5b6123cf89828a01611cd8565b965050602087013567ffffffffffffffff8111156123f0576123ef611bbb565b5b6123fc89828a01611cd8565b955050604061240d89828a01611e8f565b945050606087013567ffffffffffffffff81111561242e5761242d611bbb565b5b61243a89828a01611cd8565b935050608087013567ffffffffffffffff81111561245b5761245a611bbb565b5b61246789828a01611cd8565b92505060a087013567ffffffffffffffff81111561248857612487611bbb565b5b61249489828a01611cd8565b9150509295509295509295565b600081905092915050565b60006124b782611f2d565b6124c181856124a1565b93506124d1818560208601611f49565b80840191505092915050565b60006124e982846124ac565b915081905092915050565b7f456d706c6f79656520646f6573206e6f74206578697374000000000000000000600082015250565b600061252a6017836121ef565b9150612535826124f4565b602082019050919050565b600060208201905081810360008301526125598161251d565b9050919050565b7f4e487b7100000000000000000000000000000000000000000000000000000000600052602260045260246000fd5b600060028204905060018216806125a757607f821691505b6020821081036125ba576125b9612560565b5b50919050565b60008190508160005260206000209050919050565b60006020601f8301049050919050565b600082821b905092915050565b6000600883026126227fffffffffffffffffffffffffffffffffffffffffffffffffffffffffffffffff826125e5565b61262c86836125e5565b95508019841693508086168417925050509392505050565b6000819050919050565b600061266961266461265f84611d06565b612644565b611d06565b9050919050565b6000819050919050565b6126838361264e565b61269761268f82612670565b8484546125f2565b825550505050565b600090565b6126ac61269f565b6126b781848461267a565b505050565b5b818110156126db576126d06000826126a4565b6001810190506126bd565b5050565b601f821115612720576126f1816125c0565b6126fa846125d5565b81016020851015612709578190505b61271d612715856125d5565b8301826126bc565b50505b505050565b600082821c905092915050565b600061274360001984600802612725565b1980831691505092915050565b600061275c8383612732565b9150826002028217905092915050565b61277582611f2d565b67ffffffffffffffff81111561278e5761278d611bdb565b5b612798825461258f565b6127a38282856126df565b600060209050601f8311600181146127d657600084156127c4578287015190505b6127ce8582612750565b865550612836565b601f1984166127e4866125c0565b60005b8281101561280c578489015182556001820191506020850194506020810190506127e7565b868310156128295784890151612825601f891682612732565b8355505b6001600288020188555050505b505050505050565b6000604082019050612853600083018561233b565b81810360208301526128658184612200565b90509392505050565b7f57616c6c657420616c72656164792061737369676e656420746f20616e20656d60008201527f706c6f7965650000000000000000000000000000000000000000000000000000602082015250565b60006128ca6026836121ef565b91506128d58261286e565b604082019050919050565b600060208201905081810360008301526128f9816128bd565b9050919050565b7f4e6f20656d706c6f796565207769746820746869732077616c6c657400000000600082015250565b6000612936601c836121ef565b915061294182612900565b602082019050919050565b6000602082019050818103600083015261296581612929565b9050919050565b7f456d706c6f79656520494420616c726561647920657869737473000000000000600082015250565b60006129a2601a836121ef565b91506129ad8261296c565b602082019050919050565b600060208201905081810360008301526129d181612995565b9050919050565b600060408201905081810360008301526129f28185612200565b9050612a0160208301846121c5565b939250505056fea2646970667358221220c8381ec247d2a80fa1982bdc8082498daf3e1c239ccad2acc5bc01dbacf4cc0664736f6c63430008140033",
  "linkReferences": {},
  "deployedLinkReferences": {}
}