{
  "_format": "hh-sol-artifact-1",
  "contractName": "Employee",
  "sourceName": "contracts/Employee.sol",
  "abi": [
    {
      "inputs": [],
      "stateMutability": "nonpayable",
      "type": "constructor"
    },
    {
      "inputs": [
        {
          "internalType": "address",
          "name": "owner",
          "type": "address"
        }
      ],
      "name": "OwnableInvalidOwner",
      "type": "error"
    },
    {
      "inputs": [
        {
          "internalType": "address",
          "name": "account",
          "type": "address"
        }
      ],
      "name": "OwnableUnauthorizedAccount",
      "type": "error"
    },
    {
      "anonymous": false,
      "inputs": [
        {
          "indexed": true,
          "internalType": "address",
          "name": "wallet",
          "type": "address"
        },
        {
          "indexed": false,
          "internalType": "string",
          "name": "name",
          "type": "string"
        }
      ],
      "name": "EmployeeAdded",
      "type": "event"
    },
    {
      "anonymous": false,
      "inputs": [
        {
          "indexed": true,
          "internalType": "address",
          "name": "previousOwner",
          "type": "address"
        },
        {
          "indexed": true,
          "internalType": "address",
          "name": "newOwner",
          "type": "address"
        }
      ],
      "name": "OwnershipTransferred",
      "type": "event"
    },
    {
      "inputs": [
        {
          "internalType": "address",
          "name": "wallet",
          "type": "address"
        },
        {
          "internalType": "string",
          "name": "name",
          "type": "string"
        },
        {
          "internalType": "string",
          "name": "role",
          "type": "string"
        },
        {
          "internalType": "string",
          "name": "doj",
          "type": "string"
        },
        {
          "internalType": "string",
          "name": "department",
          "type": "string"
        }
      ],
      "name": "addEmployee",
      "outputs": [],
      "stateMutability": "nonpayable",
      "type": "function"
    },
    {
      "inputs": [
        {
          "internalType": "address",
          "name": "",
          "type": "address"
        }
      ],
      "name": "employees",
      "outputs": [
        {
          "internalType": "string",
          "name": "name",
          "type": "string"
        },
        {
          "internalType": "address",
          "name": "wallet",
          "type": "address"
        },
        {
          "internalType": "string",
          "name": "role",
          "type": "string"
        },
        {
          "internalType": "string",
          "name": "doj",
          "type": "string"
        },
        {
          "internalType": "string",
          "name": "department",
          "type": "string"
        }
      ],
      "stateMutability": "view",
      "type": "function"
    },
    {
      "inputs": [
        {
          "internalType": "address",
          "name": "wallet",
          "type": "address"
        }
      ],
      "name": "getEmployee",
      "outputs": [
        {
          "components": [
            {
              "internalType": "string",
              "name": "name",
              "type": "string"
            },
            {
              "internalType": "address",
              "name": "wallet",
              "type": "address"
            },
            {
              "internalType": "string",
              "name": "role",
              "type": "string"
            },
            {
              "internalType": "string",
              "name": "doj",
              "type": "string"
            },
            {
              "internalType": "string",
              "name": "department",
              "type": "string"
            }
          ],
          "internalType": "struct Employee.Record",
          "name": "",
          "type": "tuple"
        }
      ],
      "stateMutability": "view",
      "type": "function"
    },
    {
      "inputs": [
        {
          "internalType": "address",
          "name": "",
          "type": "address"
        }
      ],
      "name": "isEmployee",
      "outputs": [
        {
          "internalType": "bool",
          "name": "",
          "type": "bool"
        }
      ],
      "stateMutability": "view",
      "type": "function"
    },
    {
      "inputs": [],
      "name": "owner",
      "outputs": [
        {
          "internalType": "address",
          "name": "",
          "type": "address"
        }
      ],
      "stateMutability": "view",
      "type": "function"
    },
    {
      "inputs": [],
      "name": "renounceOwnership",
      "outputs": [],
      "stateMutability": "nonpayable",
      "type": "function"
    },
    {
      "inputs": [
        {
          "internalType": "address",
          "name": "newOwner",
          "type": "address"
        }
      ],
      "name": "transferOwnership",
      "outputs": [],
      "stateMutability": "nonpayable",
      "type": "function"
    }
  ],
  "bytecode": "0x60806040523480156200001157600080fd5b5033600073ffffffffffffffffffffffffffffffffffffffff168173ffffffffffffffffffffffffffffffffffffffff1603620000885760006040517f1e4fbdf70000000000000000000000000000000000000000000000000000000081526004016200007f9190620001a9565b60405180910390fd5b6200009981620000a060201b60201c565b50620001c6565b60008060009054906101000a900473ffffffffffffffffffffffffffffffffffffffff169050816000806101000a81548173ffffffffffffffffffffffffffffffffffffffff021916908373ffffffffffffffffffffffffffffffffffffffff1602179055508173ffffffffffffffffffffffffffffffffffffffff168173ffffffffffffffffffffffffffffffffffffffff167f8be0079c531659141344cd1fd0a4f28419497f9722a3daafe3b4186f6b6457e060405160405180910390a35050565b600073ffffffffffffffffffffffffffffffffffffffff82169050919050565b6000620001918262000164565b9050919050565b620001a38162000184565b82525050565b6000602082019050620001c0600083018462000198565b92915050565b61158680620001d66000396000f3fe608060405234801561001057600080fd5b506004361061007d5760003560e01c80638da5cb5b1161005b5780638da5cb5b146100d8578063d0678947146100f6578063ea66543f1461012a578063f2fde38b1461015a5761007d565b806332648e09146100825780634b2aeda3146100b2578063715018a6146100ce575b600080fd5b61009c60048036038101906100979190610cbc565b610176565b6040516100a99190610e13565b60405180910390f35b6100cc60048036038101906100c79190610f6a565b6104f9565b005b6100d6610759565b005b6100e061076d565b6040516100ed9190611064565b60405180910390f35b610110600480360381019061010b9190610cbc565b610796565b6040516101219594939291906110c9565b60405180910390f35b610144600480360381019061013f9190610cbc565b610a0c565b6040516101519190611153565b60405180910390f35b610174600480360381019061016f9190610cbc565b610a2c565b005b61017e610c05565b600260008373ffffffffffffffffffffffffffffffffffffffff1673ffffffffffffffffffffffffffffffffffffffff16815260200190815260200160002060009054906101000a900460ff1661020a576040517f08c379a0000000000000000000000000000000000000000000000000000000008152600401610201906111ba565b60405180910390fd5b600160008373ffffffffffffffffffffffffffffffffffffffff1673ffffffffffffffffffffffffffffffffffffffff1681526020019081526020016000206040518060a001604052908160008201805461026490611209565b80601f016020809104026020016040519081016040528092919081815260200182805461029090611209565b80156102dd5780601f106102b2576101008083540402835291602001916102dd565b820191906000526020600020905b8154815290600101906020018083116102c057829003601f168201915b505050505081526020016001820160009054906101000a900473ffffffffffffffffffffffffffffffffffffffff1673ffffffffffffffffffffffffffffffffffffffff1673ffffffffffffffffffffffffffffffffffffffff16815260200160028201805461034c90611209565b80601f016020809104026020016040519081016040528092919081815260200182805461037890611209565b80156103c55780601f1061039a576101008083540402835291602001916103c5565b820191906000526020600020905b8154815290600101906020018083116103a857829003601f168201915b505050505081526020016003820180546103de90611209565b80601f016020809104026020016040519081016040528092919081815260200182805461040a90611209565b80156104575780601f1061042c57610100808354040283529160200191610457565b820191906000526020600020905b81548152906001019060200180831161043a57829003601f168201915b5050505050815260200160048201805461047090611209565b80601f016020809104026020016040519081016040528092919081815260200182805461049c90611209565b80156104e95780601f106104be576101008083540402835291602001916104e9565b820191906000526020600020905b8154815290600101906020018083116104cc57829003601f168201915b5050505050815250509050919050565b610501610ab2565b600260008673ffffffffffffffffffffffffffffffffffffffff1673ffffffffffffffffffffffffffffffffffffffff16815260200190815260200160002060009054906101000a900460ff161561058e576040517f08c379a000000000000000000000000000000000000000000000000000000000815260040161058590611286565b60405180910390fd5b6040518060a001604052808581526020018673ffffffffffffffffffffffffffffffffffffffff16815260200184815260200183815260200182815250600160008773ffffffffffffffffffffffffffffffffffffffff1673ffffffffffffffffffffffffffffffffffffffff168152602001908152602001600020600082015181600001908161061f919061145c565b5060208201518160010160006101000a81548173ffffffffffffffffffffffffffffffffffffffff021916908373ffffffffffffffffffffffffffffffffffffffff160217905550604082015181600201908161067c919061145c565b506060820151816003019081610692919061145c565b5060808201518160040190816106a8919061145c565b509050506001600260008773ffffffffffffffffffffffffffffffffffffffff1673ffffffffffffffffffffffffffffffffffffffff16815260200190815260200160002060006101000a81548160ff0219169083151502179055508473ffffffffffffffffffffffffffffffffffffffff167f88f573da530a15bcd26d991f12ed95c157a183024a775dcccd317998426c4ce48560405161074a919061152e565b60405180910390a25050505050565b610761610ab2565b61076b6000610b39565b565b60008060009054906101000a900473ffffffffffffffffffffffffffffffffffffffff16905090565b60016020528060005260406000206000915090508060000180546107b990611209565b80601f01602080910402602001604051908101604052809291908181526020018280546107e590611209565b80156108325780601f1061080757610100808354040283529160200191610832565b820191906000526020600020905b81548152906001019060200180831161081557829003601f168201915b5050505050908060010160009054906101000a900473ffffffffffffffffffffffffffffffffffffffff169080600201805461086d90611209565b80601f016020809104026020016040519081016040528092919081815260200182805461089990611209565b80156108e65780601f106108bb576101008083540402835291602001916108e6565b820191906000526020600020905b8154815290600101906020018083116108c957829003601f168201915b5050505050908060030180546108fb90611209565b80601f016020809104026020016040519081016040528092919081815260200182805461092790611209565b80156109745780601f1061094957610100808354040283529160200191610974565b820191906000526020600020905b81548152906001019060200180831161095757829003601f168201915b50505050509080600401805461098990611209565b80601f01602080910402602001604051908101604052809291908181526020018280546109b590611209565b8015610a025780601f106109d757610100808354040283529160200191610a02565b820191906000526020600020905b8154815290600101906020018083116109e557829003601f168201915b5050505050905085565b60026020528060005260406000206000915054906101000a900460ff1681565b610a34610ab2565b600073ffffffffffffffffffffffffffffffffffffffff168173ffffffffffffffffffffffffffffffffffffffff1603610aa65760006040517f1e4fbdf7000000000000000000000000000000000000000000000000000000008152600401610a9d9190611064565b60405180910390fd5b610aaf81610b39565b50565b610aba610bfd565b73ffffffffffffffffffffffffffffffffffffffff16610ad861076d565b73ffffffffffffffffffffffffffffffffffffffff1614610b3757610afb610bfd565b6040517f118cdaa7000000000000000000000000000000000000000000000000000000008152600401610b2e9190611064565b60405180910390fd5b565b60008060009054906101000a900473ffffffffffffffffffffffffffffffffffffffff169050816000806101000a81548173ffffffffffffffffffffffffffffffffffffffff021916908373ffffffffffffffffffffffffffffffffffffffff1602179055508173ffffffffffffffffffffffffffffffffffffffff168173ffffffffffffffffffffffffffffffffffffffff167f8be0079c531659141344cd1fd0a4f28419497f9722a3daafe3b4186f6b6457e060405160405180910390a35050565b600033905090565b6040518060a0016040528060608152602001600073ffffffffffffffffffffffffffffffffffffffff1681526020016060815260200160608152602001606081525090565b6000604051905090565b600080fd5b600080fd5b600073ffffffffffffffffffffffffffffffffffffffff82169050919050565b6000610c8982610c5e565b9050919050565b610c9981610c7e565b8114610ca457600080fd5b50565b600081359050610cb681610c90565b92915050565b600060208284031215610cd257610cd1610c54565b5b6000610ce084828501610ca7565b91505092915050565b600081519050919050565b600082825260208201905092915050565b60005b83811015610d23578082015181840152602081019050610d08565b60008484015250505050565b6000601f19601f8301169050919050565b6000610d4b82610ce9565b610d558185610cf4565b9350610d65818560208601610d05565b610d6e81610d2f565b840191505092915050565b610d8281610c7e565b82525050565b600060a0830160008301518482036000860152610da58282610d40565b9150506020830151610dba6020860182610d79565b5060408301518482036040860152610dd28282610d40565b91505060608301518482036060860152610dec8282610d40565b91505060808301518482036080860152610e068282610d40565b9150508091505092915050565b60006020820190508181036000830152610e2d8184610d88565b905092915050565b600080fd5b600080fd5b7f4e487b7100000000000000000000000000000000000000000000000000000000600052604160045260246000fd5b610e7782610d2f565b810181811067ffffffffffffffff82111715610e9657610e95610e3f565b5b80604052505050565b6000610ea9610c4a565b9050610eb58282610e6e565b919050565b600067ffffffffffffffff821115610ed557610ed4610e3f565b5b610ede82610d2f565b9050602081019050919050565b82818337600083830152505050565b6000610f0d610f0884610eba565b610e9f565b905082815260208101848484011115610f2957610f28610e3a565b5b610f34848285610eeb565b509392505050565b600082601f830112610f5157610f50610e35565b5b8135610f61848260208601610efa565b91505092915050565b600080600080600060a08688031215610f8657610f85610c54565b5b6000610f9488828901610ca7565b955050602086013567ffffffffffffffff811115610fb557610fb4610c59565b5b610fc188828901610f3c565b945050604086013567ffffffffffffffff811115610fe257610fe1610c59565b5b610fee88828901610f3c565b935050606086013567ffffffffffffffff81111561100f5761100e610c59565b5b61101b88828901610f3c565b925050608086013567ffffffffffffffff81111561103c5761103b610c59565b5b61104888828901610f3c565b9150509295509295909350565b61105e81610c7e565b82525050565b60006020820190506110796000830184611055565b92915050565b600082825260208201905092915050565b600061109b82610ce9565b6110a5818561107f565b93506110b5818560208601610d05565b6110be81610d2f565b840191505092915050565b600060a08201905081810360008301526110e38188611090565b90506110f26020830187611055565b81810360408301526111048186611090565b905081810360608301526111188185611090565b9050818103608083015261112c8184611090565b90509695505050505050565b60008115159050919050565b61114d81611138565b82525050565b60006020820190506111686000830184611144565b92915050565b7f456d706c6f79656520646f6573206e6f74206578697374000000000000000000600082015250565b60006111a460178361107f565b91506111af8261116e565b602082019050919050565b600060208201905081810360008301526111d381611197565b9050919050565b7f4e487b7100000000000000000000000000000000000000000000000000000000600052602260045260246000fd5b6000600282049050600182168061122157607f821691505b602082108103611234576112336111da565b5b50919050565b7f456d706c6f79656520616c726561647920657869737473000000000000000000600082015250565b600061127060178361107f565b915061127b8261123a565b602082019050919050565b6000602082019050818103600083015261129f81611263565b9050919050565b60008190508160005260206000209050919050565b60006020601f8301049050919050565b600082821b905092915050565b6000600883026113087fffffffffffffffffffffffffffffffffffffffffffffffffffffffffffffffff826112cb565b61131286836112cb565b95508019841693508086168417925050509392505050565b6000819050919050565b6000819050919050565b600061135961135461134f8461132a565b611334565b61132a565b9050919050565b6000819050919050565b6113738361133e565b61138761137f82611360565b8484546112d8565b825550505050565b600090565b61139c61138f565b6113a781848461136a565b505050565b5b818110156113cb576113c0600082611394565b6001810190506113ad565b5050565b601f821115611410576113e1816112a6565b6113ea846112bb565b810160208510156113f9578190505b61140d611405856112bb565b8301826113ac565b50505b505050565b600082821c905092915050565b600061143360001984600802611415565b1980831691505092915050565b600061144c8383611422565b9150826002028217905092915050565b61146582610ce9565b67ffffffffffffffff81111561147e5761147d610e3f565b5b6114888254611209565b6114938282856113cf565b600060209050601f8311600181146114c657600084156114b4578287015190505b6114be8582611440565b865550611526565b601f1984166114d4866112a6565b60005b828110156114fc578489015182556001820191506020850194506020810190506114d7565b868310156115195784890151611515601f891682611422565b8355505b6001600288020188555050505b505050505050565b600060208201905081810360008301526115488184611090565b90509291505056fea264697066735822122018ffe362514eb40e16bd24c3eb3ab7b2af56524ce1ece39e6f2cf63de0bcb1ac64736f6c63430008140033",
  "linkReferences": {},
  "deployedLinkReferences": {}
}