{
  "_format": "hh-sol-artifact-1",
  "contractName": "Payroll",
  "sourceName": "contracts/Payroll.sol",
  "abi": [
    {
      "inputs": [
        {
          "internalType": "address",
          "name": "_employeeContract",
          "type": "address"
        }
      ],
      "stateMutability": "nonpayable",
      "type": "constructor"
    },
    {
      "inputs": [
        {
          "internalType": "address",
          "name": "owner",
          "type": "address"
        }
      ],
      "name": "OwnableInvalidOwner",
      "type": "error"
    },
    {
      "inputs": [
        {
          "internalType": "address",
          "name": "account",
          "type": "address"
        }
      ],
      "name": "OwnableUnauthorizedAccount",
      "type": "error"
    },
    {
      "anonymous": false,
      "inputs": [
        {
          "indexed": true,
          "internalType": "address",
          "name": "previousOwner",
          "type": "address"
        },
        {
          "indexed": true,
          "internalType": "address",
          "name": "newOwner",
          "type": "address"
        }
      ],
      "name": "OwnershipTransferred",
      "type": "event"
    },
    {
      "anonymous": false,
      "inputs": [
        {
          "indexed": true,
          "internalType": "string",
          "name": "employeeId",
          "type": "string"
        },
        {
          "indexed": false,
          "internalType": "address",
          "name": "wallet",
          "type": "address"
        },
        {
          "indexed": false,
          "internalType": "uint256",
          "name": "amount",
          "type": "uint256"
        },
        {
          "indexed": false,
          "internalType": "uint256",
          "name": "timestamp",
          "type": "uint256"
        }
      ],
      "name": "SalarySent",
      "type": "event"
    },
    {
      "inputs": [],
      "name": "employeeContract",
      "outputs": [
        {
          "internalType": "contract Employee",
          "name": "",
          "type": "address"
        }
      ],
      "stateMutability": "view",
      "type": "function"
    },
    {
      "inputs": [],
      "name": "getEmployeeContract",
      "outputs": [
        {
          "internalType": "address",
          "name": "",
          "type": "address"
        }
      ],
      "stateMutability": "view",
      "type": "function"
    },
    {
      "inputs": [
        {
          "internalType": "string",
          "name": "employeeId",
          "type": "string"
        },
        {
          "internalType": "uint256",
          "name": "amount",
          "type": "uint256"
        }
      ],
      "name": "logPayroll",
      "outputs": [],
      "stateMutability": "nonpayable",
      "type": "function"
    },
    {
      "inputs": [],
      "name": "owner",
      "outputs": [
        {
          "internalType": "address",
          "name": "",
          "type": "address"
        }
      ],
      "stateMutability": "view",
      "type": "function"
    },
    {
      "inputs": [],
      "name": "renounceOwnership",
      "outputs": [],
      "stateMutability": "nonpayable",
      "type": "function"
    },
    {
      "inputs": [
        {
          "internalType": "address",
          "name": "newOwner",
          "type": "address"
        }
      ],
      "name": "transferOwnership",
      "outputs": [],
      "stateMutability": "nonpayable",
      "type": "function"
    }
  ],
  "bytecode": "0x60806040523480156200001157600080fd5b5060405162000f5038038062000f50833981810160405281019062000037919062000235565b33600073ffffffffffffffffffffffffffffffffffffffff168173ffffffffffffffffffffffffffffffffffffffff1603620000ad5760006040517f1e4fbdf7000000000000000000000000000000000000000000000000000000008152600401620000a4919062000278565b60405180910390fd5b620000be816200010760201b60201c565b5080600160006101000a81548173ffffffffffffffffffffffffffffffffffffffff021916908373ffffffffffffffffffffffffffffffffffffffff1602179055505062000295565b60008060009054906101000a900473ffffffffffffffffffffffffffffffffffffffff169050816000806101000a81548173ffffffffffffffffffffffffffffffffffffffff021916908373ffffffffffffffffffffffffffffffffffffffff1602179055508173ffffffffffffffffffffffffffffffffffffffff168173ffffffffffffffffffffffffffffffffffffffff167f8be0079c531659141344cd1fd0a4f28419497f9722a3daafe3b4186f6b6457e060405160405180910390a35050565b600080fd5b600073ffffffffffffffffffffffffffffffffffffffff82169050919050565b6000620001fd82620001d0565b9050919050565b6200020f81620001f0565b81146200021b57600080fd5b50565b6000815190506200022f8162000204565b92915050565b6000602082840312156200024e576200024d620001cb565b5b60006200025e848285016200021e565b91505092915050565b6200027281620001f0565b82525050565b60006020820190506200028f600083018462000267565b92915050565b610cab80620002a56000396000f3fe608060405234801561001057600080fd5b50600436106100625760003560e01c806320b26f4914610067578063285aeea91461008357806350878ebe146100a1578063715018a6146100bf5780638da5cb5b146100c9578063f2fde38b146100e7575b600080fd5b610081600480360381019061007c91906106db565b610103565b005b61008b6102e5565b6040516100989190610778565b60405180910390f35b6100a961030f565b6040516100b691906107f2565b60405180910390f35b6100c7610335565b005b6100d1610349565b6040516100de9190610778565b60405180910390f35b61010160048036038101906100fc9190610839565b610372565b005b61010b6103f8565b600160009054906101000a900473ffffffffffffffffffffffffffffffffffffffff1673ffffffffffffffffffffffffffffffffffffffff16634996f846836040518263ffffffff1660e01b815260040161016691906108e5565b602060405180830381865afa158015610183573d6000803e3d6000fd5b505050506040513d601f19601f820116820180604052508101906101a7919061093f565b6101e6576040517f08c379a00000000000000000000000000000000000000000000000000000000081526004016101dd906109b8565b60405180910390fd5b6000600160009054906101000a900473ffffffffffffffffffffffffffffffffffffffff1673ffffffffffffffffffffffffffffffffffffffff16637a0e01c7846040518263ffffffff1660e01b815260040161024391906108e5565b600060405180830381865afa158015610260573d6000803e3d6000fd5b505050506040513d6000823e3d601f19601f820116820180604052508101906102899190610b93565b9050826040516102999190610c18565b60405180910390207f59204fd3e63765b5990d5ec4273756ea3cce4bc3290c18cc37894f386dc4dd4e826040015184426040516102d893929190610c3e565b60405180910390a2505050565b6000600160009054906101000a900473ffffffffffffffffffffffffffffffffffffffff16905090565b600160009054906101000a900473ffffffffffffffffffffffffffffffffffffffff1681565b61033d6103f8565b610347600061047f565b565b60008060009054906101000a900473ffffffffffffffffffffffffffffffffffffffff16905090565b61037a6103f8565b600073ffffffffffffffffffffffffffffffffffffffff168173ffffffffffffffffffffffffffffffffffffffff16036103ec5760006040517f1e4fbdf70000000000000000000000000000000000000000000000000000000081526004016103e39190610778565b60405180910390fd5b6103f58161047f565b50565b610400610543565b73ffffffffffffffffffffffffffffffffffffffff1661041e610349565b73ffffffffffffffffffffffffffffffffffffffff161461047d57610441610543565b6040517f118cdaa70000000000000000000000000000000000000000000000000000000081526004016104749190610778565b60405180910390fd5b565b60008060009054906101000a900473ffffffffffffffffffffffffffffffffffffffff169050816000806101000a81548173ffffffffffffffffffffffffffffffffffffffff021916908373ffffffffffffffffffffffffffffffffffffffff1602179055508173ffffffffffffffffffffffffffffffffffffffff168173ffffffffffffffffffffffffffffffffffffffff167f8be0079c531659141344cd1fd0a4f28419497f9722a3daafe3b4186f6b6457e060405160405180910390a35050565b600033905090565b6000604051905090565b600080fd5b600080fd5b600080fd5b600080fd5b6000601f19601f8301169050919050565b7f4e487b7100000000000000000000000000000000000000000000000000000000600052604160045260246000fd5b6105b282610569565b810181811067ffffffffffffffff821117156105d1576105d061057a565b5b80604052505050565b60006105e461054b565b90506105f082826105a9565b919050565b600067ffffffffffffffff8211156106105761060f61057a565b5b61061982610569565b9050602081019050919050565b82818337600083830152505050565b6000610648610643846105f5565b6105da565b90508281526020810184848401111561066457610663610564565b5b61066f848285610626565b509392505050565b600082601f83011261068c5761068b61055f565b5b813561069c848260208601610635565b91505092915050565b6000819050919050565b6106b8816106a5565b81146106c357600080fd5b50565b6000813590506106d5816106af565b92915050565b600080604083850312156106f2576106f1610555565b5b600083013567ffffffffffffffff8111156107105761070f61055a565b5b61071c85828601610677565b925050602061072d858286016106c6565b9150509250929050565b600073ffffffffffffffffffffffffffffffffffffffff82169050919050565b600061076282610737565b9050919050565b61077281610757565b82525050565b600060208201905061078d6000830184610769565b92915050565b6000819050919050565b60006107b86107b36107ae84610737565b610793565b610737565b9050919050565b60006107ca8261079d565b9050919050565b60006107dc826107bf565b9050919050565b6107ec816107d1565b82525050565b600060208201905061080760008301846107e3565b92915050565b61081681610757565b811461082157600080fd5b50565b6000813590506108338161080d565b92915050565b60006020828403121561084f5761084e610555565b5b600061085d84828501610824565b91505092915050565b600081519050919050565b600082825260208201905092915050565b60005b838110156108a0578082015181840152602081019050610885565b60008484015250505050565b60006108b782610866565b6108c18185610871565b93506108d1818560208601610882565b6108da81610569565b840191505092915050565b600060208201905081810360008301526108ff81846108ac565b905092915050565b60008115159050919050565b61091c81610907565b811461092757600080fd5b50565b60008151905061093981610913565b92915050565b60006020828403121561095557610954610555565b5b60006109638482850161092a565b91505092915050565b7f4e6f7420612076616c696420656d706c6f796565000000000000000000000000600082015250565b60006109a2601483610871565b91506109ad8261096c565b602082019050919050565b600060208201905081810360008301526109d181610995565b9050919050565b600080fd5b600080fd5b60006109f56109f0846105f5565b6105da565b905082815260208101848484011115610a1157610a10610564565b5b610a1c848285610882565b509392505050565b600082601f830112610a3957610a3861055f565b5b8151610a498482602086016109e2565b91505092915050565b600081519050610a618161080d565b92915050565b600060c08284031215610a7d57610a7c6109d8565b5b610a8760c06105da565b9050600082015167ffffffffffffffff811115610aa757610aa66109dd565b5b610ab384828501610a24565b600083015250602082015167ffffffffffffffff811115610ad757610ad66109dd565b5b610ae384828501610a24565b6020830152506040610af784828501610a52565b604083015250606082015167ffffffffffffffff811115610b1b57610b1a6109dd565b5b610b2784828501610a24565b606083015250608082015167ffffffffffffffff811115610b4b57610b4a6109dd565b5b610b5784828501610a24565b60808301525060a082015167ffffffffffffffff811115610b7b57610b7a6109dd565b5b610b8784828501610a24565b60a08301525092915050565b600060208284031215610ba957610ba8610555565b5b600082015167ffffffffffffffff811115610bc757610bc661055a565b5b610bd384828501610a67565b91505092915050565b600081905092915050565b6000610bf282610866565b610bfc8185610bdc565b9350610c0c818560208601610882565b80840191505092915050565b6000610c248284610be7565b915081905092915050565b610c38816106a5565b82525050565b6000606082019050610c536000830186610769565b610c606020830185610c2f565b610c6d6040830184610c2f565b94935050505056fea2646970667358221220ad635257ed87137d963089c05e3eb8a5b6357d39aa9d7362ca036da325dd508364736f6c63430008140033",
  "linkReferences": {},
  "deployedLinkReferences": {}
}