{
  "_format": "hh-sol-artifact-1",
  "contractName": "Payroll",
  "sourceName": "contracts/Payroll.sol",
  "abi": [
    {
      "inputs": [
        {
          "internalType": "address",
          "name": "_employeeContract",
          "type": "address"
        }
      ],
      "stateMutability": "nonpayable",
      "type": "constructor"
    },
    {
      "inputs": [
        {
          "internalType": "address",
          "name": "owner",
          "type": "address"
        }
      ],
      "name": "OwnableInvalidOwner",
      "type": "error"
    },
    {
      "inputs": [
        {
          "internalType": "address",
          "name": "account",
          "type": "address"
        }
      ],
      "name": "OwnableUnauthorizedAccount",
      "type": "error"
    },
    {
      "anonymous": false,
      "inputs": [
        {
          "indexed": true,
          "internalType": "address",
          "name": "previousOwner",
          "type": "address"
        },
        {
          "indexed": true,
          "internalType": "address",
          "name": "newOwner",
          "type": "address"
        }
      ],
      "name": "OwnershipTransferred",
      "type": "event"
    },
    {
      "anonymous": false,
      "inputs": [
        {
          "indexed": true,
          "internalType": "address",
          "name": "emp",
          "type": "address"
        },
        {
          "indexed": false,
          "internalType": "uint256",
          "name": "amount",
          "type": "uint256"
        },
        {
          "indexed": false,
          "internalType": "uint256",
          "name": "timestamp",
          "type": "uint256"
        }
      ],
      "name": "SalarySent",
      "type": "event"
    },
    {
      "inputs": [],
      "name": "employeeContract",
      "outputs": [
        {
          "internalType": "contract Employee",
          "name": "",
          "type": "address"
        }
      ],
      "stateMutability": "view",
      "type": "function"
    },
    {
      "inputs": [],
      "name": "getEmployeeContract",
      "outputs": [
        {
          "internalType": "address",
          "name": "",
          "type": "address"
        }
      ],
      "stateMutability": "view",
      "type": "function"
    },
    {
      "inputs": [
        {
          "internalType": "address",
          "name": "emp",
          "type": "address"
        },
        {
          "internalType": "uint256",
          "name": "amount",
          "type": "uint256"
        }
      ],
      "name": "logPayroll",
      "outputs": [],
      "stateMutability": "nonpayable",
      "type": "function"
    },
    {
      "inputs": [],
      "name": "owner",
      "outputs": [
        {
          "internalType": "address",
          "name": "",
          "type": "address"
        }
      ],
      "stateMutability": "view",
      "type": "function"
    },
    {
      "inputs": [],
      "name": "renounceOwnership",
      "outputs": [],
      "stateMutability": "nonpayable",
      "type": "function"
    },
    {
      "inputs": [
        {
          "internalType": "address",
          "name": "newOwner",
          "type": "address"
        }
      ],
      "name": "transferOwnership",
      "outputs": [],
      "stateMutability": "nonpayable",
      "type": "function"
    }
  ],
  "bytecode": "0x608060405234801561001057600080fd5b50604051610a23380380610a2383398181016040528101906100329190610223565b33600073ffffffffffffffffffffffffffffffffffffffff168173ffffffffffffffffffffffffffffffffffffffff16036100a55760006040517f1e4fbdf700000000000000000000000000000000000000000000000000000000815260040161009c919061025f565b60405180910390fd5b6100b4816100fc60201b60201c565b5080600160006101000a81548173ffffffffffffffffffffffffffffffffffffffff021916908373ffffffffffffffffffffffffffffffffffffffff1602179055505061027a565b60008060009054906101000a900473ffffffffffffffffffffffffffffffffffffffff169050816000806101000a81548173ffffffffffffffffffffffffffffffffffffffff021916908373ffffffffffffffffffffffffffffffffffffffff1602179055508173ffffffffffffffffffffffffffffffffffffffff168173ffffffffffffffffffffffffffffffffffffffff167f8be0079c531659141344cd1fd0a4f28419497f9722a3daafe3b4186f6b6457e060405160405180910390a35050565b600080fd5b600073ffffffffffffffffffffffffffffffffffffffff82169050919050565b60006101f0826101c5565b9050919050565b610200816101e5565b811461020b57600080fd5b50565b60008151905061021d816101f7565b92915050565b600060208284031215610239576102386101c0565b5b60006102478482850161020e565b91505092915050565b610259816101e5565b82525050565b60006020820190506102746000830184610250565b92915050565b61079a806102896000396000f3fe608060405234801561001057600080fd5b50600436106100625760003560e01c8063285aeea91461006757806350878ebe14610085578063715018a6146100a35780638da5cb5b146100ad578063ab4a80fb146100cb578063f2fde38b146100e7575b600080fd5b61006f610103565b60405161007c91906104e1565b60405180910390f35b61008d61012d565b60405161009a919061055b565b60405180910390f35b6100ab610153565b005b6100b5610167565b6040516100c291906104e1565b60405180910390f35b6100e560048036038101906100e091906105dd565b610190565b005b61010160048036038101906100fc919061061d565b6102c7565b005b6000600160009054906101000a900473ffffffffffffffffffffffffffffffffffffffff16905090565b600160009054906101000a900473ffffffffffffffffffffffffffffffffffffffff1681565b61015b61034d565b61016560006103d4565b565b60008060009054906101000a900473ffffffffffffffffffffffffffffffffffffffff16905090565b61019861034d565b600160009054906101000a900473ffffffffffffffffffffffffffffffffffffffff1673ffffffffffffffffffffffffffffffffffffffff1663ea66543f836040518263ffffffff1660e01b81526004016101f391906104e1565b602060405180830381865afa158015610210573d6000803e3d6000fd5b505050506040513d601f19601f820116820180604052508101906102349190610682565b610273576040517f08c379a000000000000000000000000000000000000000000000000000000000815260040161026a9061070c565b60405180910390fd5b8173ffffffffffffffffffffffffffffffffffffffff167f0ad5d0c440c243785cb1a5be5bd5d99fafa05ce50ef52215f749be807588d00382426040516102bb92919061073b565b60405180910390a25050565b6102cf61034d565b600073ffffffffffffffffffffffffffffffffffffffff168173ffffffffffffffffffffffffffffffffffffffff16036103415760006040517f1e4fbdf700000000000000000000000000000000000000000000000000000000815260040161033891906104e1565b60405180910390fd5b61034a816103d4565b50565b610355610498565b73ffffffffffffffffffffffffffffffffffffffff16610373610167565b73ffffffffffffffffffffffffffffffffffffffff16146103d257610396610498565b6040517f118cdaa70000000000000000000000000000000000000000000000000000000081526004016103c991906104e1565b60405180910390fd5b565b60008060009054906101000a900473ffffffffffffffffffffffffffffffffffffffff169050816000806101000a81548173ffffffffffffffffffffffffffffffffffffffff021916908373ffffffffffffffffffffffffffffffffffffffff1602179055508173ffffffffffffffffffffffffffffffffffffffff168173ffffffffffffffffffffffffffffffffffffffff167f8be0079c531659141344cd1fd0a4f28419497f9722a3daafe3b4186f6b6457e060405160405180910390a35050565b600033905090565b600073ffffffffffffffffffffffffffffffffffffffff82169050919050565b60006104cb826104a0565b9050919050565b6104db816104c0565b82525050565b60006020820190506104f660008301846104d2565b92915050565b6000819050919050565b600061052161051c610517846104a0565b6104fc565b6104a0565b9050919050565b600061053382610506565b9050919050565b600061054582610528565b9050919050565b6105558161053a565b82525050565b6000602082019050610570600083018461054c565b92915050565b600080fd5b610584816104c0565b811461058f57600080fd5b50565b6000813590506105a18161057b565b92915050565b6000819050919050565b6105ba816105a7565b81146105c557600080fd5b50565b6000813590506105d7816105b1565b92915050565b600080604083850312156105f4576105f3610576565b5b600061060285828601610592565b9250506020610613858286016105c8565b9150509250929050565b60006020828403121561063357610632610576565b5b600061064184828501610592565b91505092915050565b60008115159050919050565b61065f8161064a565b811461066a57600080fd5b50565b60008151905061067c81610656565b92915050565b60006020828403121561069857610697610576565b5b60006106a68482850161066d565b91505092915050565b600082825260208201905092915050565b7f4e6f7420612076616c696420656d706c6f796565000000000000000000000000600082015250565b60006106f66014836106af565b9150610701826106c0565b602082019050919050565b60006020820190508181036000830152610725816106e9565b9050919050565b610735816105a7565b82525050565b6000604082019050610750600083018561072c565b61075d602083018461072c565b939250505056fea264697066735822122091b94d41b89d67c8d3c9768fbaa7e25646373f0fe4bfc1527ff5938841649d9464736f6c63430008140033",
  "linkReferences": {},
  "deployedLinkReferences": {}
}