{
  "_format": "hh-sol-artifact-1",
  "contractName": "NFTCert",
  "sourceName": "contracts/NFTCert.sol",
  "abi": [
    {
      "inputs": [
        {
          "internalType": "address",
          "name": "_employeeContract",
          "type": "address"
        }
      ],
      "stateMutability": "nonpayable",
      "type": "constructor"
    },
    {
      "inputs": [
        {
          "internalType": "address",
          "name": "sender",
          "type": "address"
        },
        {
          "internalType": "uint256",
          "name": "tokenId",
          "type": "uint256"
        },
        {
          "internalType": "address",
          "name": "owner",
          "type": "address"
        }
      ],
      "name": "ERC721IncorrectOwner",
      "type": "error"
    },
    {
      "inputs": [
        {
          "internalType": "address",
          "name": "operator",
          "type": "address"
        },
        {
          "internalType": "uint256",
          "name": "tokenId",
          "type": "uint256"
        }
      ],
      "name": "ERC721InsufficientApproval",
      "type": "error"
    },
    {
      "inputs": [
        {
          "internalType": "address",
          "name": "approver",
          "type": "address"
        }
      ],
      "name": "ERC721InvalidApprover",
      "type": "error"
    },
    {
      "inputs": [
        {
          "internalType": "address",
          "name": "operator",
          "type": "address"
        }
      ],
      "name": "ERC721InvalidOperator",
      "type": "error"
    },
    {
      "inputs": [
        {
          "internalType": "address",
          "name": "owner",
          "type": "address"
        }
      ],
      "name": "ERC721InvalidOwner",
      "type": "error"
    },
    {
      "inputs": [
        {
          "internalType": "address",
          "name": "receiver",
          "type": "address"
        }
      ],
      "name": "ERC721InvalidReceiver",
      "type": "error"
    },
    {
      "inputs": [
        {
          "internalType": "address",
          "name": "sender",
          "type": "address"
        }
      ],
      "name": "ERC721InvalidSender",
      "type": "error"
    },
    {
      "inputs": [
        {
          "internalType": "uint256",
          "name": "tokenId",
          "type": "uint256"
        }
      ],
      "name": "ERC721NonexistentToken",
      "type": "error"
    },
    {
      "inputs": [
        {
          "internalType": "address",
          "name": "owner",
          "type": "address"
        }
      ],
      "name": "OwnableInvalidOwner",
      "type": "error"
    },
    {
      "inputs": [
        {
          "internalType": "address",
          "name": "account",
          "type": "address"
        }
      ],
      "name": "OwnableUnauthorizedAccount",
      "type": "error"
    },
    {
      "anonymous": false,
      "inputs": [
        {
          "indexed": true,
          "internalType": "address",
          "name": "owner",
          "type": "address"
        },
        {
          "indexed": true,
          "internalType": "address",
          "name": "approved",
          "type": "address"
        },
        {
          "indexed": true,
          "internalType": "uint256",
          "name": "tokenId",
          "type": "uint256"
        }
      ],
      "name": "Approval",
      "type": "event"
    },
    {
      "anonymous": false,
      "inputs": [
        {
          "indexed": true,
          "internalType": "address",
          "name": "owner",
          "type": "address"
        },
        {
          "indexed": true,
          "internalType": "address",
          "name": "operator",
          "type": "address"
        },
        {
          "indexed": false,
          "internalType": "bool",
          "name": "approved",
          "type": "bool"
        }
      ],
      "name": "ApprovalForAll",
      "type": "event"
    },
    {
      "anonymous": false,
      "inputs": [
        {
          "indexed": true,
          "internalType": "address",
          "name": "to",
          "type": "address"
        },
        {
          "indexed": false,
          "internalType": "uint256",
          "name": "tokenId",
          "type": "uint256"
        },
        {
          "indexed": false,
          "internalType": "string",
          "name": "tokenURI",
          "type": "string"
        },
        {
          "indexed": false,
          "internalType": "string",
          "name": "employeeId",
          "type": "string"
        }
      ],
      "name": "CertificateMinted",
      "type": "event"
    },
    {
      "anonymous": false,
      "inputs": [
        {
          "indexed": true,
          "internalType": "address",
          "name": "previousOwner",
          "type": "address"
        },
        {
          "indexed": true,
          "internalType": "address",
          "name": "newOwner",
          "type": "address"
        }
      ],
      "name": "OwnershipTransferred",
      "type": "event"
    },
    {
      "anonymous": false,
      "inputs": [
        {
          "indexed": true,
          "internalType": "address",
          "name": "from",
          "type": "address"
        },
        {
          "indexed": true,
          "internalType": "address",
          "name": "to",
          "type": "address"
        },
        {
          "indexed": true,
          "internalType": "uint256",
          "name": "tokenId",
          "type": "uint256"
        }
      ],
      "name": "Transfer",
      "type": "event"
    },
    {
      "inputs": [
        {
          "internalType": "address",
          "name": "to",
          "type": "address"
        },
        {
          "internalType": "uint256",
          "name": "tokenId",
          "type": "uint256"
        }
      ],
      "name": "approve",
      "outputs": [],
      "stateMutability": "nonpayable",
      "type": "function"
    },
    {
      "inputs": [
        {
          "internalType": "address",
          "name": "owner",
          "type": "address"
        }
      ],
      "name": "balanceOf",
      "outputs": [
        {
          "internalType": "uint256",
          "name": "",
          "type": "uint256"
        }
      ],
      "stateMutability": "view",
      "type": "function"
    },
    {
      "inputs": [],
      "name": "employeeContract",
      "outputs": [
        {
          "internalType": "contract Employee",
          "name": "",
          "type": "address"
        }
      ],
      "stateMutability": "view",
      "type": "function"
    },
    {
      "inputs": [
        {
          "internalType": "uint256",
          "name": "tokenId",
          "type": "uint256"
        }
      ],
      "name": "getApproved",
      "outputs": [
        {
          "internalType": "address",
          "name": "",
          "type": "address"
        }
      ],
      "stateMutability": "view",
      "type": "function"
    },
    {
      "inputs": [
        {
          "internalType": "uint256",
          "name": "tokenId",
          "type": "uint256"
        }
      ],
      "name": "getEmployeeIdForToken",
      "outputs": [
        {
          "internalType": "string",
          "name": "",
          "type": "string"
        }
      ],
      "stateMutability": "view",
      "type": "function"
    },
    {
      "inputs": [
        {
          "internalType": "address",
          "name": "owner",
          "type": "address"
        },
        {
          "internalType": "address",
          "name": "operator",
          "type": "address"
        }
      ],
      "name": "isApprovedForAll",
      "outputs": [
        {
          "internalType": "bool",
          "name": "",
          "type": "bool"
        }
      ],
      "stateMutability": "view",
      "type": "function"
    },
    {
      "inputs": [
        {
          "internalType": "address",
          "name": "to",
          "type": "address"
        },
        {
          "internalType": "string",
          "name": "employeeId",
          "type": "string"
        },
        {
          "internalType": "string",
          "name": "uri",
          "type": "string"
        }
      ],
      "name": "mintCertificate",
      "outputs": [
        {
          "internalType": "uint256",
          "name": "",
          "type": "uint256"
        }
      ],
      "stateMutability": "nonpayable",
      "type": "function"
    },
    {
      "inputs": [],
      "name": "name",
      "outputs": [
        {
          "internalType": "string",
          "name": "",
          "type": "string"
        }
      ],
      "stateMutability": "view",
      "type": "function"
    },
    {
      "inputs": [],
      "name": "owner",
      "outputs": [
        {
          "internalType": "address",
          "name": "",
          "type": "address"
        }
      ],
      "stateMutability": "view",
      "type": "function"
    },
    {
      "inputs": [
        {
          "internalType": "uint256",
          "name": "tokenId",
          "type": "uint256"
        }
      ],
      "name": "ownerOf",
      "outputs": [
        {
          "internalType": "address",
          "name": "",
          "type": "address"
        }
      ],
      "stateMutability": "view",
      "type": "function"
    },
    {
      "inputs": [],
      "name": "renounceOwnership",
      "outputs": [],
      "stateMutability": "nonpayable",
      "type": "function"
    },
    {
      "inputs": [
        {
          "internalType": "address",
          "name": "from",
          "type": "address"
        },
        {
          "internalType": "address",
          "name": "to",
          "type": "address"
        },
        {
          "internalType": "uint256",
          "name": "tokenId",
          "type": "uint256"
        }
      ],
      "name": "safeTransferFrom",
      "outputs": [],
      "stateMutability": "nonpayable",
      "type": "function"
    },
    {
      "inputs": [
        {
          "internalType": "address",
          "name": "from",
          "type": "address"
        },
        {
          "internalType": "address",
          "name": "to",
          "type": "address"
        },
        {
          "internalType": "uint256",
          "name": "tokenId",
          "type": "uint256"
        },
        {
          "internalType": "bytes",
          "name": "data",
          "type": "bytes"
        }
      ],
      "name": "safeTransferFrom",
      "outputs": [],
      "stateMutability": "nonpayable",
      "type": "function"
    },
    {
      "inputs": [
        {
          "internalType": "address",
          "name": "operator",
          "type": "address"
        },
        {
          "internalType": "bool",
          "name": "approved",
          "type": "bool"
        }
      ],
      "name": "setApprovalForAll",
      "outputs": [],
      "stateMutability": "nonpayable",
      "type": "function"
    },
    {
      "inputs": [
        {
          "internalType": "bytes4",
          "name": "interfaceId",
          "type": "bytes4"
        }
      ],
      "name": "supportsInterface",
      "outputs": [
        {
          "internalType": "bool",
          "name": "",
          "type": "bool"
        }
      ],
      "stateMutability": "view",
      "type": "function"
    },
    {
      "inputs": [],
      "name": "symbol",
      "outputs": [
        {
          "internalType": "string",
          "name": "",
          "type": "string"
        }
      ],
      "stateMutability": "view",
      "type": "function"
    },
    {
      "inputs": [
        {
          "internalType": "uint256",
          "name": "tokenId",
          "type": "uint256"
        }
      ],
      "name": "tokenURI",
      "outputs": [
        {
          "internalType": "string",
          "name": "",
          "type": "string"
        }
      ],
      "stateMutability": "view",
      "type": "function"
    },
    {
      "inputs": [
        {
          "internalType": "address",
          "name": "from",
          "type": "address"
        },
        {
          "internalType": "address",
          "name": "to",
          "type": "address"
        },
        {
          "internalType": "uint256",
          "name": "tokenId",
          "type": "uint256"
        }
      ],
      "name": "transferFrom",
      "outputs": [],
      "stateMutability": "nonpayable",
      "type": "function"
    },
    {
      "inputs": [
        {
          "internalType": "address",
          "name": "newOwner",
          "type": "address"
        }
      ],
      "name": "transferOwnership",
      "outputs": [],
      "stateMutability": "nonpayable",
      "type": "function"
    }
  ],
  "bytecode": "0x60806040523480156200001157600080fd5b5060405162002d0b38038062002d0b8339818101604052810190620000379190620002c9565b336040518060400160405280601381526020017f53544146464920436572746966696361746573000000000000000000000000008152506040518060400160405280600481526020017f43455254000000000000000000000000000000000000000000000000000000008152508160009081620000b5919062000575565b508060019081620000c7919062000575565b505050600073ffffffffffffffffffffffffffffffffffffffff168173ffffffffffffffffffffffffffffffffffffffff16036200013f5760006040517f1e4fbdf70000000000000000000000000000000000000000000000000000000081526004016200013691906200066d565b60405180910390fd5b62000150816200019960201b60201c565b5080600860006101000a81548173ffffffffffffffffffffffffffffffffffffffff021916908373ffffffffffffffffffffffffffffffffffffffff160217905550506200068a565b6000600660009054906101000a900473ffffffffffffffffffffffffffffffffffffffff16905081600660006101000a81548173ffffffffffffffffffffffffffffffffffffffff021916908373ffffffffffffffffffffffffffffffffffffffff1602179055508173ffffffffffffffffffffffffffffffffffffffff168173ffffffffffffffffffffffffffffffffffffffff167f8be0079c531659141344cd1fd0a4f28419497f9722a3daafe3b4186f6b6457e060405160405180910390a35050565b600080fd5b600073ffffffffffffffffffffffffffffffffffffffff82169050919050565b6000620002918262000264565b9050919050565b620002a38162000284565b8114620002af57600080fd5b50565b600081519050620002c38162000298565b92915050565b600060208284031215620002e257620002e16200025f565b5b6000620002f284828501620002b2565b91505092915050565b600081519050919050565b7f4e487b7100000000000000000000000000000000000000000000000000000000600052604160045260246000fd5b7f4e487b7100000000000000000000000000000000000000000000000000000000600052602260045260246000fd5b600060028204905060018216806200037d57607f821691505b60208210810362000393576200039262000335565b5b50919050565b60008190508160005260206000209050919050565b60006020601f8301049050919050565b600082821b905092915050565b600060088302620003fd7fffffffffffffffffffffffffffffffffffffffffffffffffffffffffffffffff82620003be565b620004098683620003be565b95508019841693508086168417925050509392505050565b6000819050919050565b6000819050919050565b600062000456620004506200044a8462000421565b6200042b565b62000421565b9050919050565b6000819050919050565b620004728362000435565b6200048a62000481826200045d565b848454620003cb565b825550505050565b600090565b620004a162000492565b620004ae81848462000467565b505050565b5b81811015620004d657620004ca60008262000497565b600181019050620004b4565b5050565b601f8211156200052557620004ef8162000399565b620004fa84620003ae565b810160208510156200050a578190505b620005226200051985620003ae565b830182620004b3565b50505b505050565b600082821c905092915050565b60006200054a600019846008026200052a565b1980831691505092915050565b600062000565838362000537565b9150826002028217905092915050565b6200058082620002fb565b67ffffffffffffffff8111156200059c576200059b62000306565b5b620005a8825462000364565b620005b5828285620004da565b600060209050601f831160018114620005ed5760008415620005d8578287015190505b620005e4858262000557565b86555062000654565b601f198416620005fd8662000399565b60005b82811015620006275784890151825560018201915060208501945060208101905062000600565b8683101562000647578489015162000643601f89168262000537565b8355505b6001600288020188555050505b505050505050565b620006678162000284565b82525050565b60006020820190506200068460008301846200065c565b92915050565b612671806200069a6000396000f3fe608060405234801561001057600080fd5b50600436106101215760003560e01c806370a08231116100ad578063b88d4fde11610071578063b88d4fde14610308578063c87b56dd14610324578063d5b6bde014610354578063e985e9c514610384578063f2fde38b146103b457610121565b806370a0823114610276578063715018a6146102a65780638da5cb5b146102b057806395d89b41146102ce578063a22cb465146102ec57610121565b806323b872dd116100f457806323b872dd146101c057806342842e0e146101dc57806350878ebe146101f85780636352211e146102165780636b55243d1461024657610121565b806301ffc9a71461012657806306fdde0314610156578063081812fc14610174578063095ea7b3146101a4575b600080fd5b610140600480360381019061013b91906119c6565b6103d0565b60405161014d9190611a0e565b60405180910390f35b61015e6103e2565b60405161016b9190611ab9565b60405180910390f35b61018e60048036038101906101899190611b11565b610474565b60405161019b9190611b7f565b60405180910390f35b6101be60048036038101906101b99190611bc6565b610490565b005b6101da60048036038101906101d59190611c06565b6104a6565b005b6101f660048036038101906101f19190611c06565b6105a8565b005b6102006105c8565b60405161020d9190611cb8565b60405180910390f35b610230600480360381019061022b9190611b11565b6105ee565b60405161023d9190611b7f565b60405180910390f35b610260600480360381019061025b9190611e08565b610600565b60405161026d9190611ea2565b60405180910390f35b610290600480360381019061028b9190611ebd565b6107a9565b60405161029d9190611ea2565b60405180910390f35b6102ae610863565b005b6102b8610877565b6040516102c59190611b7f565b60405180910390f35b6102d66108a1565b6040516102e39190611ab9565b60405180910390f35b61030660048036038101906103019190611f16565b610933565b005b610322600480360381019061031d9190611ff7565b610949565b005b61033e60048036038101906103399190611b11565b61096e565b60405161034b9190611ab9565b60405180910390f35b61036e60048036038101906103699190611b11565b610a1d565b60405161037b9190611ab9565b60405180910390f35b61039e6004803603810190610399919061207a565b610acc565b6040516103ab9190611a0e565b60405180910390f35b6103ce60048036038101906103c99190611ebd565b610b60565b005b60006103db82610be6565b9050919050565b6060600080546103f1906120e9565b80601f016020809104026020016040519081016040528092919081815260200182805461041d906120e9565b801561046a5780601f1061043f5761010080835404028352916020019161046a565b820191906000526020600020905b81548152906001019060200180831161044d57829003601f168201915b5050505050905090565b600061047f82610cc8565b5061048982610d50565b9050919050565b6104a2828261049d610d8d565b610d95565b5050565b600073ffffffffffffffffffffffffffffffffffffffff168273ffffffffffffffffffffffffffffffffffffffff16036105185760006040517f64a0ae9200000000000000000000000000000000000000000000000000000000815260040161050f9190611b7f565b60405180910390fd5b600061052c8383610527610d8d565b610da7565b90508373ffffffffffffffffffffffffffffffffffffffff168173ffffffffffffffffffffffffffffffffffffffff16146105a2578382826040517f64283d7b0000000000000000000000000000000000000000000000000000000081526004016105999392919061211a565b60405180910390fd5b50505050565b6105c383838360405180602001604052806000815250610949565b505050565b600860009054906101000a900473ffffffffffffffffffffffffffffffffffffffff1681565b60006105f982610cc8565b9050919050565b600061060a610fc1565b600860009054906101000a900473ffffffffffffffffffffffffffffffffffffffff1673ffffffffffffffffffffffffffffffffffffffff16634996f846846040518263ffffffff1660e01b81526004016106659190611ab9565b602060405180830381865afa158015610682573d6000803e3d6000fd5b505050506040513d601f19601f820116820180604052508101906106a69190612166565b6106e5576040517f08c379a00000000000000000000000000000000000000000000000000000000081526004016106dc906121df565b60405180910390fd5b6000600760008154809291906106fa9061222e565b91905055905061070a8582611048565b82600a6000838152602001908152602001600020908161072a9190612418565b508360096000838152602001908152602001600020908161074b9190612418565b508473ffffffffffffffffffffffffffffffffffffffff167fdf3ae6468a98ff1ead3728ef0f0ebb699d510dd92dfb1fc5901a84fd9aa7f26e828587604051610796939291906124ea565b60405180910390a2809150509392505050565b60008073ffffffffffffffffffffffffffffffffffffffff168273ffffffffffffffffffffffffffffffffffffffff160361081c5760006040517f89c62b640000000000000000000000000000000000000000000000000000000081526004016108139190611b7f565b60405180910390fd5b600360008373ffffffffffffffffffffffffffffffffffffffff1673ffffffffffffffffffffffffffffffffffffffff168152602001908152602001600020549050919050565b61086b610fc1565b6108756000611066565b565b6000600660009054906101000a900473ffffffffffffffffffffffffffffffffffffffff16905090565b6060600180546108b0906120e9565b80601f01602080910402602001604051908101604052809291908181526020018280546108dc906120e9565b80156109295780601f106108fe57610100808354040283529160200191610929565b820191906000526020600020905b81548152906001019060200180831161090c57829003601f168201915b5050505050905090565b61094561093e610d8d565b838361112c565b5050565b6109548484846104a6565b61096861095f610d8d565b8585858561129b565b50505050565b606061097982610cc8565b50600a60008381526020019081526020016000208054610998906120e9565b80601f01602080910402602001604051908101604052809291908181526020018280546109c4906120e9565b8015610a115780601f106109e657610100808354040283529160200191610a11565b820191906000526020600020905b8154815290600101906020018083116109f457829003601f168201915b50505050509050919050565b6060610a2882610cc8565b50600960008381526020019081526020016000208054610a47906120e9565b80601f0160208091040260200160405190810160405280929190818152602001828054610a73906120e9565b8015610ac05780601f10610a9557610100808354040283529160200191610ac0565b820191906000526020600020905b815481529060010190602001808311610aa357829003601f168201915b50505050509050919050565b6000600560008473ffffffffffffffffffffffffffffffffffffffff1673ffffffffffffffffffffffffffffffffffffffff16815260200190815260200160002060008373ffffffffffffffffffffffffffffffffffffffff1673ffffffffffffffffffffffffffffffffffffffff16815260200190815260200160002060009054906101000a900460ff16905092915050565b610b68610fc1565b600073ffffffffffffffffffffffffffffffffffffffff168173ffffffffffffffffffffffffffffffffffffffff1603610bda5760006040517f1e4fbdf7000000000000000000000000000000000000000000000000000000008152600401610bd19190611b7f565b60405180910390fd5b610be381611066565b50565b60007f80ac58cd000000000000000000000000000000000000000000000000000000007bffffffffffffffffffffffffffffffffffffffffffffffffffffffff1916827bffffffffffffffffffffffffffffffffffffffffffffffffffffffff19161480610cb157507f5b5e139f000000000000000000000000000000000000000000000000000000007bffffffffffffffffffffffffffffffffffffffffffffffffffffffff1916827bffffffffffffffffffffffffffffffffffffffffffffffffffffffff1916145b80610cc15750610cc08261144c565b5b9050919050565b600080610cd4836114b6565b9050600073ffffffffffffffffffffffffffffffffffffffff168173ffffffffffffffffffffffffffffffffffffffff1603610d4757826040517f7e273289000000000000000000000000000000000000000000000000000000008152600401610d3e9190611ea2565b60405180910390fd5b80915050919050565b60006004600083815260200190815260200160002060009054906101000a900473ffffffffffffffffffffffffffffffffffffffff169050919050565b600033905090565b610da283838360016114f3565b505050565b600080610db3846114b6565b9050600073ffffffffffffffffffffffffffffffffffffffff168373ffffffffffffffffffffffffffffffffffffffff1614610df557610df48184866116b8565b5b600073ffffffffffffffffffffffffffffffffffffffff168173ffffffffffffffffffffffffffffffffffffffff1614610e8657610e376000856000806114f3565b6001600360008373ffffffffffffffffffffffffffffffffffffffff1673ffffffffffffffffffffffffffffffffffffffff168152602001908152602001600020600082825403925050819055505b600073ffffffffffffffffffffffffffffffffffffffff168573ffffffffffffffffffffffffffffffffffffffff1614610f09576001600360008773ffffffffffffffffffffffffffffffffffffffff1673ffffffffffffffffffffffffffffffffffffffff168152602001908152602001600020600082825401925050819055505b846002600086815260200190815260200160002060006101000a81548173ffffffffffffffffffffffffffffffffffffffff021916908373ffffffffffffffffffffffffffffffffffffffff160217905550838573ffffffffffffffffffffffffffffffffffffffff168273ffffffffffffffffffffffffffffffffffffffff167fddf252ad1be2c89b69c2b068fc378daa952ba7f163c4a11628f55a4df523b3ef60405160405180910390a4809150509392505050565b610fc9610d8d565b73ffffffffffffffffffffffffffffffffffffffff16610fe7610877565b73ffffffffffffffffffffffffffffffffffffffff16146110465761100a610d8d565b6040517f118cdaa700000000000000000000000000000000000000000000000000000000815260040161103d9190611b7f565b60405180910390fd5b565b61106282826040518060200160405280600081525061177c565b5050565b6000600660009054906101000a900473ffffffffffffffffffffffffffffffffffffffff16905081600660006101000a81548173ffffffffffffffffffffffffffffffffffffffff021916908373ffffffffffffffffffffffffffffffffffffffff1602179055508173ffffffffffffffffffffffffffffffffffffffff168173ffffffffffffffffffffffffffffffffffffffff167f8be0079c531659141344cd1fd0a4f28419497f9722a3daafe3b4186f6b6457e060405160405180910390a35050565b600073ffffffffffffffffffffffffffffffffffffffff168273ffffffffffffffffffffffffffffffffffffffff160361119d57816040517f5b08ba180000000000000000000000000000000000000000000000000000000081526004016111949190611b7f565b60405180910390fd5b80600560008573ffffffffffffffffffffffffffffffffffffffff1673ffffffffffffffffffffffffffffffffffffffff16815260200190815260200160002060008473ffffffffffffffffffffffffffffffffffffffff1673ffffffffffffffffffffffffffffffffffffffff16815260200190815260200160002060006101000a81548160ff0219169083151502179055508173ffffffffffffffffffffffffffffffffffffffff168373ffffffffffffffffffffffffffffffffffffffff167f17307eab39ab6107e8899845ad3d59bd9653f200f220920489ca2b5937696c318360405161128e9190611a0e565b60405180910390a3505050565b60008373ffffffffffffffffffffffffffffffffffffffff163b1115611445578273ffffffffffffffffffffffffffffffffffffffff1663150b7a02868685856040518563ffffffff1660e01b81526004016112fa9493929190612584565b6020604051808303816000875af192505050801561133657506040513d601f19601f8201168201806040525081019061133391906125e5565b60015b6113ba573d8060008114611366576040519150601f19603f3d011682016040523d82523d6000602084013e61136b565b606091505b5060008151036113b257836040517f64a0ae920000000000000000000000000000000000000000000000000000000081526004016113a99190611b7f565b60405180910390fd5b805181602001fd5b63150b7a0260e01b7bffffffffffffffffffffffffffffffffffffffffffffffffffffffff1916817bffffffffffffffffffffffffffffffffffffffffffffffffffffffff19161461144357836040517f64a0ae9200000000000000000000000000000000000000000000000000000000815260040161143a9190611b7f565b60405180910390fd5b505b5050505050565b60007f01ffc9a7000000000000000000000000000000000000000000000000000000007bffffffffffffffffffffffffffffffffffffffffffffffffffffffff1916827bffffffffffffffffffffffffffffffffffffffffffffffffffffffff1916149050919050565b60006002600083815260200190815260200160002060009054906101000a900473ffffffffffffffffffffffffffffffffffffffff169050919050565b808061152c5750600073ffffffffffffffffffffffffffffffffffffffff168273ffffffffffffffffffffffffffffffffffffffff1614155b1561166057600061153c84610cc8565b9050600073ffffffffffffffffffffffffffffffffffffffff168373ffffffffffffffffffffffffffffffffffffffff16141580156115a757508273ffffffffffffffffffffffffffffffffffffffff168173ffffffffffffffffffffffffffffffffffffffff1614155b80156115ba57506115b88184610acc565b155b156115fc57826040517fa9fbf51f0000000000000000000000000000000000000000000000000000000081526004016115f39190611b7f565b60405180910390fd5b811561165e57838573ffffffffffffffffffffffffffffffffffffffff168273ffffffffffffffffffffffffffffffffffffffff167f8c5be1e5ebec7d5bd14f71427d1e84f3dd0314c0f7b2291e5b200ac8c7c3b92560405160405180910390a45b505b836004600085815260200190815260200160002060006101000a81548173ffffffffffffffffffffffffffffffffffffffff021916908373ffffffffffffffffffffffffffffffffffffffff16021790555050505050565b6116c38383836117a0565b61177757600073ffffffffffffffffffffffffffffffffffffffff168373ffffffffffffffffffffffffffffffffffffffff160361173857806040517f7e27328900000000000000000000000000000000000000000000000000000000815260040161172f9190611ea2565b60405180910390fd5b81816040517f177e802f00000000000000000000000000000000000000000000000000000000815260040161176e929190612612565b60405180910390fd5b505050565b6117868383611861565b61179b611791610d8d565b600085858561129b565b505050565b60008073ffffffffffffffffffffffffffffffffffffffff168373ffffffffffffffffffffffffffffffffffffffff161415801561185857508273ffffffffffffffffffffffffffffffffffffffff168473ffffffffffffffffffffffffffffffffffffffff16148061181957506118188484610acc565b5b8061185757508273ffffffffffffffffffffffffffffffffffffffff1661183f83610d50565b73ffffffffffffffffffffffffffffffffffffffff16145b5b90509392505050565b600073ffffffffffffffffffffffffffffffffffffffff168273ffffffffffffffffffffffffffffffffffffffff16036118d35760006040517f64a0ae920000000000000000000000000000000000000000000000000000000081526004016118ca9190611b7f565b60405180910390fd5b60006118e183836000610da7565b9050600073ffffffffffffffffffffffffffffffffffffffff168173ffffffffffffffffffffffffffffffffffffffff16146119555760006040517f73c6ac6e00000000000000000000000000000000000000000000000000000000815260040161194c9190611b7f565b60405180910390fd5b505050565b6000604051905090565b600080fd5b600080fd5b60007fffffffff0000000000000000000000000000000000000000000000000000000082169050919050565b6119a38161196e565b81146119ae57600080fd5b50565b6000813590506119c08161199a565b92915050565b6000602082840312156119dc576119db611964565b5b60006119ea848285016119b1565b91505092915050565b60008115159050919050565b611a08816119f3565b82525050565b6000602082019050611a2360008301846119ff565b92915050565b600081519050919050565b600082825260208201905092915050565b60005b83811015611a63578082015181840152602081019050611a48565b60008484015250505050565b6000601f19601f8301169050919050565b6000611a8b82611a29565b611a958185611a34565b9350611aa5818560208601611a45565b611aae81611a6f565b840191505092915050565b60006020820190508181036000830152611ad38184611a80565b905092915050565b6000819050919050565b611aee81611adb565b8114611af957600080fd5b50565b600081359050611b0b81611ae5565b92915050565b600060208284031215611b2757611b26611964565b5b6000611b3584828501611afc565b91505092915050565b600073ffffffffffffffffffffffffffffffffffffffff82169050919050565b6000611b6982611b3e565b9050919050565b611b7981611b5e565b82525050565b6000602082019050611b946000830184611b70565b92915050565b611ba381611b5e565b8114611bae57600080fd5b50565b600081359050611bc081611b9a565b92915050565b60008060408385031215611bdd57611bdc611964565b5b6000611beb85828601611bb1565b9250506020611bfc85828601611afc565b9150509250929050565b600080600060608486031215611c1f57611c1e611964565b5b6000611c2d86828701611bb1565b9350506020611c3e86828701611bb1565b9250506040611c4f86828701611afc565b9150509250925092565b6000819050919050565b6000611c7e611c79611c7484611b3e565b611c59565b611b3e565b9050919050565b6000611c9082611c63565b9050919050565b6000611ca282611c85565b9050919050565b611cb281611c97565b82525050565b6000602082019050611ccd6000830184611ca9565b92915050565b600080fd5b600080fd5b7f4e487b7100000000000000000000000000000000000000000000000000000000600052604160045260246000fd5b611d1582611a6f565b810181811067ffffffffffffffff82111715611d3457611d33611cdd565b5b80604052505050565b6000611d4761195a565b9050611d538282611d0c565b919050565b600067ffffffffffffffff821115611d7357611d72611cdd565b5b611d7c82611a6f565b9050602081019050919050565b82818337600083830152505050565b6000611dab611da684611d58565b611d3d565b905082815260208101848484011115611dc757611dc6611cd8565b5b611dd2848285611d89565b509392505050565b600082601f830112611def57611dee611cd3565b5b8135611dff848260208601611d98565b91505092915050565b600080600060608486031215611e2157611e20611964565b5b6000611e2f86828701611bb1565b935050602084013567ffffffffffffffff811115611e5057611e4f611969565b5b611e5c86828701611dda565b925050604084013567ffffffffffffffff811115611e7d57611e7c611969565b5b611e8986828701611dda565b9150509250925092565b611e9c81611adb565b82525050565b6000602082019050611eb76000830184611e93565b92915050565b600060208284031215611ed357611ed2611964565b5b6000611ee184828501611bb1565b91505092915050565b611ef3816119f3565b8114611efe57600080fd5b50565b600081359050611f1081611eea565b92915050565b60008060408385031215611f2d57611f2c611964565b5b6000611f3b85828601611bb1565b9250506020611f4c85828601611f01565b9150509250929050565b600067ffffffffffffffff821115611f7157611f70611cdd565b5b611f7a82611a6f565b9050602081019050919050565b6000611f9a611f9584611f56565b611d3d565b905082815260208101848484011115611fb657611fb5611cd8565b5b611fc1848285611d89565b509392505050565b600082601f830112611fde57611fdd611cd3565b5b8135611fee848260208601611f87565b91505092915050565b6000806000806080858703121561201157612010611964565b5b600061201f87828801611bb1565b945050602061203087828801611bb1565b935050604061204187828801611afc565b925050606085013567ffffffffffffffff81111561206257612061611969565b5b61206e87828801611fc9565b91505092959194509250565b6000806040838503121561209157612090611964565b5b600061209f85828601611bb1565b92505060206120b085828601611bb1565b9150509250929050565b7f4e487b7100000000000000000000000000000000000000000000000000000000600052602260045260246000fd5b6000600282049050600182168061210157607f821691505b602082108103612114576121136120ba565b5b50919050565b600060608201905061212f6000830186611b70565b61213c6020830185611e93565b6121496040830184611b70565b949350505050565b60008151905061216081611eea565b92915050565b60006020828403121561217c5761217b611964565b5b600061218a84828501612151565b91505092915050565b7f4e6f7420612076616c696420656d706c6f796565000000000000000000000000600082015250565b60006121c9601483611a34565b91506121d482612193565b602082019050919050565b600060208201905081810360008301526121f8816121bc565b9050919050565b7f4e487b7100000000000000000000000000000000000000000000000000000000600052601160045260246000fd5b600061223982611adb565b91507fffffffffffffffffffffffffffffffffffffffffffffffffffffffffffffffff820361226b5761226a6121ff565b5b600182019050919050565b60008190508160005260206000209050919050565b60006020601f8301049050919050565b600082821b905092915050565b6000600883026122d87fffffffffffffffffffffffffffffffffffffffffffffffffffffffffffffffff8261229b565b6122e2868361229b565b95508019841693508086168417925050509392505050565b600061231561231061230b84611adb565b611c59565b611adb565b9050919050565b6000819050919050565b61232f836122fa565b61234361233b8261231c565b8484546122a8565b825550505050565b600090565b61235861234b565b612363818484612326565b505050565b5b818110156123875761237c600082612350565b600181019050612369565b5050565b601f8211156123cc5761239d81612276565b6123a68461228b565b810160208510156123b5578190505b6123c96123c18561228b565b830182612368565b50505b505050565b600082821c905092915050565b60006123ef600019846008026123d1565b1980831691505092915050565b600061240883836123de565b9150826002028217905092915050565b61242182611a29565b67ffffffffffffffff81111561243a57612439611cdd565b5b61244482546120e9565b61244f82828561238b565b600060209050601f8311600181146124825760008415612470578287015190505b61247a85826123fc565b8655506124e2565b601f19841661249086612276565b60005b828110156124b857848901518255600182019150602085019450602081019050612493565b868310156124d557848901516124d1601f8916826123de565b8355505b6001600288020188555050505b505050505050565b60006060820190506124ff6000830186611e93565b81810360208301526125118185611a80565b905081810360408301526125258184611a80565b9050949350505050565b600081519050919050565b600082825260208201905092915050565b60006125568261252f565b612560818561253a565b9350612570818560208601611a45565b61257981611a6f565b840191505092915050565b60006080820190506125996000830187611b70565b6125a66020830186611b70565b6125b36040830185611e93565b81810360608301526125c5818461254b565b905095945050505050565b6000815190506125df8161199a565b92915050565b6000602082840312156125fb576125fa611964565b5b6000612609848285016125d0565b91505092915050565b60006040820190506126276000830185611b70565b6126346020830184611e93565b939250505056fea2646970667358221220b1c90689d80d8d84ee40856025359c68907563e2e9d937e29f6b572ac396157464736f6c63430008140033",
  "linkReferences": {},
  "deployedLinkReferences": {}
}