{
  "_format": "hh-sol-artifact-1",
  "contractName": "NFTCert",
  "sourceName": "contracts/NFTCert.sol",
  "abi": [
    {
      "inputs": [
        {
          "internalType": "address",
          "name": "_employeeContract",
          "type": "address"
        }
      ],
      "stateMutability": "nonpayable",
      "type": "constructor"
    },
    {
      "inputs": [
        {
          "internalType": "address",
          "name": "sender",
          "type": "address"
        },
        {
          "internalType": "uint256",
          "name": "tokenId",
          "type": "uint256"
        },
        {
          "internalType": "address",
          "name": "owner",
          "type": "address"
        }
      ],
      "name": "ERC721IncorrectOwner",
      "type": "error"
    },
    {
      "inputs": [
        {
          "internalType": "address",
          "name": "operator",
          "type": "address"
        },
        {
          "internalType": "uint256",
          "name": "tokenId",
          "type": "uint256"
        }
      ],
      "name": "ERC721InsufficientApproval",
      "type": "error"
    },
    {
      "inputs": [
        {
          "internalType": "address",
          "name": "approver",
          "type": "address"
        }
      ],
      "name": "ERC721InvalidApprover",
      "type": "error"
    },
    {
      "inputs": [
        {
          "internalType": "address",
          "name": "operator",
          "type": "address"
        }
      ],
      "name": "ERC721InvalidOperator",
      "type": "error"
    },
    {
      "inputs": [
        {
          "internalType": "address",
          "name": "owner",
          "type": "address"
        }
      ],
      "name": "ERC721InvalidOwner",
      "type": "error"
    },
    {
      "inputs": [
        {
          "internalType": "address",
          "name": "receiver",
          "type": "address"
        }
      ],
      "name": "ERC721InvalidReceiver",
      "type": "error"
    },
    {
      "inputs": [
        {
          "internalType": "address",
          "name": "sender",
          "type": "address"
        }
      ],
      "name": "ERC721InvalidSender",
      "type": "error"
    },
    {
      "inputs": [
        {
          "internalType": "uint256",
          "name": "tokenId",
          "type": "uint256"
        }
      ],
      "name": "ERC721NonexistentToken",
      "type": "error"
    },
    {
      "inputs": [
        {
          "internalType": "address",
          "name": "owner",
          "type": "address"
        }
      ],
      "name": "OwnableInvalidOwner",
      "type": "error"
    },
    {
      "inputs": [
        {
          "internalType": "address",
          "name": "account",
          "type": "address"
        }
      ],
      "name": "OwnableUnauthorizedAccount",
      "type": "error"
    },
    {
      "anonymous": false,
      "inputs": [
        {
          "indexed": true,
          "internalType": "address",
          "name": "owner",
          "type": "address"
        },
        {
          "indexed": true,
          "internalType": "address",
          "name": "approved",
          "type": "address"
        },
        {
          "indexed": true,
          "internalType": "uint256",
          "name": "tokenId",
          "type": "uint256"
        }
      ],
      "name": "Approval",
      "type": "event"
    },
    {
      "anonymous": false,
      "inputs": [
        {
          "indexed": true,
          "internalType": "address",
          "name": "owner",
          "type": "address"
        },
        {
          "indexed": true,
          "internalType": "address",
          "name": "operator",
          "type": "address"
        },
        {
          "indexed": false,
          "internalType": "bool",
          "name": "approved",
          "type": "bool"
        }
      ],
      "name": "ApprovalForAll",
      "type": "event"
    },
    {
      "anonymous": false,
      "inputs": [
        {
          "indexed": true,
          "internalType": "address",
          "name": "to",
          "type": "address"
        },
        {
          "indexed": false,
          "internalType": "uint256",
          "name": "tokenId",
          "type": "uint256"
        },
        {
          "indexed": false,
          "internalType": "string",
          "name": "tokenURI",
          "type": "string"
        }
      ],
      "name": "CertificateMinted",
      "type": "event"
    },
    {
      "anonymous": false,
      "inputs": [
        {
          "indexed": true,
          "internalType": "address",
          "name": "previousOwner",
          "type": "address"
        },
        {
          "indexed": true,
          "internalType": "address",
          "name": "newOwner",
          "type": "address"
        }
      ],
      "name": "OwnershipTransferred",
      "type": "event"
    },
    {
      "anonymous": false,
      "inputs": [
        {
          "indexed": true,
          "internalType": "address",
          "name": "from",
          "type": "address"
        },
        {
          "indexed": true,
          "internalType": "address",
          "name": "to",
          "type": "address"
        },
        {
          "indexed": true,
          "internalType": "uint256",
          "name": "tokenId",
          "type": "uint256"
        }
      ],
      "name": "Transfer",
      "type": "event"
    },
    {
      "inputs": [
        {
          "internalType": "address",
          "name": "to",
          "type": "address"
        },
        {
          "internalType": "uint256",
          "name": "tokenId",
          "type": "uint256"
        }
      ],
      "name": "approve",
      "outputs": [],
      "stateMutability": "nonpayable",
      "type": "function"
    },
    {
      "inputs": [
        {
          "internalType": "address",
          "name": "owner",
          "type": "address"
        }
      ],
      "name": "balanceOf",
      "outputs": [
        {
          "internalType": "uint256",
          "name": "",
          "type": "uint256"
        }
      ],
      "stateMutability": "view",
      "type": "function"
    },
    {
      "inputs": [],
      "name": "employeeContract",
      "outputs": [
        {
          "internalType": "contract Employee",
          "name": "",
          "type": "address"
        }
      ],
      "stateMutability": "view",
      "type": "function"
    },
    {
      "inputs": [
        {
          "internalType": "uint256",
          "name": "tokenId",
          "type": "uint256"
        }
      ],
      "name": "getApproved",
      "outputs": [
        {
          "internalType": "address",
          "name": "",
          "type": "address"
        }
      ],
      "stateMutability": "view",
      "type": "function"
    },
    {
      "inputs": [
        {
          "internalType": "address",
          "name": "owner",
          "type": "address"
        },
        {
          "internalType": "address",
          "name": "operator",
          "type": "address"
        }
      ],
      "name": "isApprovedForAll",
      "outputs": [
        {
          "internalType": "bool",
          "name": "",
          "type": "bool"
        }
      ],
      "stateMutability": "view",
      "type": "function"
    },
    {
      "inputs": [
        {
          "internalType": "address",
          "name": "to",
          "type": "address"
        },
        {
          "internalType": "string",
          "name": "uri",
          "type": "string"
        }
      ],
      "name": "mintCertificate",
      "outputs": [
        {
          "internalType": "uint256",
          "name": "",
          "type": "uint256"
        }
      ],
      "stateMutability": "nonpayable",
      "type": "function"
    },
    {
      "inputs": [],
      "name": "name",
      "outputs": [
        {
          "internalType": "string",
          "name": "",
          "type": "string"
        }
      ],
      "stateMutability": "view",
      "type": "function"
    },
    {
      "inputs": [],
      "name": "owner",
      "outputs": [
        {
          "internalType": "address",
          "name": "",
          "type": "address"
        }
      ],
      "stateMutability": "view",
      "type": "function"
    },
    {
      "inputs": [
        {
          "internalType": "uint256",
          "name": "tokenId",
          "type": "uint256"
        }
      ],
      "name": "ownerOf",
      "outputs": [
        {
          "internalType": "address",
          "name": "",
          "type": "address"
        }
      ],
      "stateMutability": "view",
      "type": "function"
    },
    {
      "inputs": [],
      "name": "renounceOwnership",
      "outputs": [],
      "stateMutability": "nonpayable",
      "type": "function"
    },
    {
      "inputs": [
        {
          "internalType": "address",
          "name": "from",
          "type": "address"
        },
        {
          "internalType": "address",
          "name": "to",
          "type": "address"
        },
        {
          "internalType": "uint256",
          "name": "tokenId",
          "type": "uint256"
        }
      ],
      "name": "safeTransferFrom",
      "outputs": [],
      "stateMutability": "nonpayable",
      "type": "function"
    },
    {
      "inputs": [
        {
          "internalType": "address",
          "name": "from",
          "type": "address"
        },
        {
          "internalType": "address",
          "name": "to",
          "type": "address"
        },
        {
          "internalType": "uint256",
          "name": "tokenId",
          "type": "uint256"
        },
        {
          "internalType": "bytes",
          "name": "data",
          "type": "bytes"
        }
      ],
      "name": "safeTransferFrom",
      "outputs": [],
      "stateMutability": "nonpayable",
      "type": "function"
    },
    {
      "inputs": [
        {
          "internalType": "address",
          "name": "operator",
          "type": "address"
        },
        {
          "internalType": "bool",
          "name": "approved",
          "type": "bool"
        }
      ],
      "name": "setApprovalForAll",
      "outputs": [],
      "stateMutability": "nonpayable",
      "type": "function"
    },
    {
      "inputs": [
        {
          "internalType": "bytes4",
          "name": "interfaceId",
          "type": "bytes4"
        }
      ],
      "name": "supportsInterface",
      "outputs": [
        {
          "internalType": "bool",
          "name": "",
          "type": "bool"
        }
      ],
      "stateMutability": "view",
      "type": "function"
    },
    {
      "inputs": [],
      "name": "symbol",
      "outputs": [
        {
          "internalType": "string",
          "name": "",
          "type": "string"
        }
      ],
      "stateMutability": "view",
      "type": "function"
    },
    {
      "inputs": [
        {
          "internalType": "uint256",
          "name": "tokenId",
          "type": "uint256"
        }
      ],
      "name": "tokenURI",
      "outputs": [
        {
          "internalType": "string",
          "name": "",
          "type": "string"
        }
      ],
      "stateMutability": "view",
      "type": "function"
    },
    {
      "inputs": [
        {
          "internalType": "address",
          "name": "from",
          "type": "address"
        },
        {
          "internalType": "address",
          "name": "to",
          "type": "address"
        },
        {
          "internalType": "uint256",
          "name": "tokenId",
          "type": "uint256"
        }
      ],
      "name": "transferFrom",
      "outputs": [],
      "stateMutability": "nonpayable",
      "type": "function"
    },
    {
      "inputs": [
        {
          "internalType": "address",
          "name": "newOwner",
          "type": "address"
        }
      ],
      "name": "transferOwnership",
      "outputs": [],
      "stateMutability": "nonpayable",
      "type": "function"
    }
  ],
  "bytecode": "0x60806040523480156200001157600080fd5b5060405162002bb938038062002bb98339818101604052810190620000379190620002c9565b336040518060400160405280601381526020017f53544146464920436572746966696361746573000000000000000000000000008152506040518060400160405280600481526020017f43455254000000000000000000000000000000000000000000000000000000008152508160009081620000b5919062000575565b508060019081620000c7919062000575565b505050600073ffffffffffffffffffffffffffffffffffffffff168173ffffffffffffffffffffffffffffffffffffffff16036200013f5760006040517f1e4fbdf70000000000000000000000000000000000000000000000000000000081526004016200013691906200066d565b60405180910390fd5b62000150816200019960201b60201c565b5080600860006101000a81548173ffffffffffffffffffffffffffffffffffffffff021916908373ffffffffffffffffffffffffffffffffffffffff160217905550506200068a565b6000600660009054906101000a900473ffffffffffffffffffffffffffffffffffffffff16905081600660006101000a81548173ffffffffffffffffffffffffffffffffffffffff021916908373ffffffffffffffffffffffffffffffffffffffff1602179055508173ffffffffffffffffffffffffffffffffffffffff168173ffffffffffffffffffffffffffffffffffffffff167f8be0079c531659141344cd1fd0a4f28419497f9722a3daafe3b4186f6b6457e060405160405180910390a35050565b600080fd5b600073ffffffffffffffffffffffffffffffffffffffff82169050919050565b6000620002918262000264565b9050919050565b620002a38162000284565b8114620002af57600080fd5b50565b600081519050620002c38162000298565b92915050565b600060208284031215620002e257620002e16200025f565b5b6000620002f284828501620002b2565b91505092915050565b600081519050919050565b7f4e487b7100000000000000000000000000000000000000000000000000000000600052604160045260246000fd5b7f4e487b7100000000000000000000000000000000000000000000000000000000600052602260045260246000fd5b600060028204905060018216806200037d57607f821691505b60208210810362000393576200039262000335565b5b50919050565b60008190508160005260206000209050919050565b60006020601f8301049050919050565b600082821b905092915050565b600060088302620003fd7fffffffffffffffffffffffffffffffffffffffffffffffffffffffffffffffff82620003be565b620004098683620003be565b95508019841693508086168417925050509392505050565b6000819050919050565b6000819050919050565b600062000456620004506200044a8462000421565b6200042b565b62000421565b9050919050565b6000819050919050565b620004728362000435565b6200048a62000481826200045d565b848454620003cb565b825550505050565b600090565b620004a162000492565b620004ae81848462000467565b505050565b5b81811015620004d657620004ca60008262000497565b600181019050620004b4565b5050565b601f8211156200052557620004ef8162000399565b620004fa84620003ae565b810160208510156200050a578190505b620005226200051985620003ae565b830182620004b3565b50505b505050565b600082821c905092915050565b60006200054a600019846008026200052a565b1980831691505092915050565b600062000565838362000537565b9150826002028217905092915050565b6200058082620002fb565b67ffffffffffffffff8111156200059c576200059b62000306565b5b620005a8825462000364565b620005b5828285620004da565b600060209050601f831160018114620005ed5760008415620005d8578287015190505b620005e4858262000557565b86555062000654565b601f198416620005fd8662000399565b60005b82811015620006275784890151825560018201915060208501945060208101905062000600565b8683101562000647578489015162000643601f89168262000537565b8355505b6001600288020188555050505b505050505050565b620006678162000284565b82525050565b60006020820190506200068460008301846200065c565b92915050565b61251f806200069a6000396000f3fe608060405234801561001057600080fd5b50600436106101165760003560e01c806370a08231116100a2578063a22cb46511610071578063a22cb465146102e1578063b88d4fde146102fd578063c87b56dd14610319578063e985e9c514610349578063f2fde38b1461037957610116565b806370a082311461026b578063715018a61461029b5780638da5cb5b146102a557806395d89b41146102c357610116565b8063095ea7b3116100e9578063095ea7b3146101c957806323b872dd146101e557806342842e0e1461020157806350878ebe1461021d5780636352211e1461023b57610116565b806301ffc9a71461011b57806306fdde031461014b5780630712249f14610169578063081812fc14610199575b600080fd5b610135600480360381019061013091906118b8565b610395565b6040516101429190611900565b60405180910390f35b6101536103a7565b60405161016091906119ab565b60405180910390f35b610183600480360381019061017e9190611b60565b610439565b6040516101909190611bd5565b60405180910390f35b6101b360048036038101906101ae9190611c1c565b6105be565b6040516101c09190611c58565b60405180910390f35b6101e360048036038101906101de9190611c73565b6105da565b005b6101ff60048036038101906101fa9190611cb3565b6105f0565b005b61021b60048036038101906102169190611cb3565b6106f2565b005b610225610712565b6040516102329190611d65565b60405180910390f35b61025560048036038101906102509190611c1c565b610738565b6040516102629190611c58565b60405180910390f35b61028560048036038101906102809190611d80565b61074a565b6040516102929190611bd5565b60405180910390f35b6102a3610804565b005b6102ad610818565b6040516102ba9190611c58565b60405180910390f35b6102cb610842565b6040516102d891906119ab565b60405180910390f35b6102fb60048036038101906102f69190611dd9565b6108d4565b005b61031760048036038101906103129190611eba565b6108ea565b005b610333600480360381019061032e9190611c1c565b61090f565b60405161034091906119ab565b60405180910390f35b610363600480360381019061035e9190611f3d565b6109be565b6040516103709190611900565b60405180910390f35b610393600480360381019061038e9190611d80565b610a52565b005b60006103a082610ad8565b9050919050565b6060600080546103b690611fac565b80601f01602080910402602001604051908101604052809291908181526020018280546103e290611fac565b801561042f5780601f106104045761010080835404028352916020019161042f565b820191906000526020600020905b81548152906001019060200180831161041257829003601f168201915b5050505050905090565b6000610443610bba565b600860009054906101000a900473ffffffffffffffffffffffffffffffffffffffff1673ffffffffffffffffffffffffffffffffffffffff1663ea66543f846040518263ffffffff1660e01b815260040161049e9190611c58565b602060405180830381865afa1580156104bb573d6000803e3d6000fd5b505050506040513d601f19601f820116820180604052508101906104df9190611ff2565b61051e576040517f08c379a00000000000000000000000000000000000000000000000000000000081526004016105159061206b565b60405180910390fd5b600060076000815480929190610533906120ba565b9190505590506105438482610c41565b8260096000838152602001908152602001600020908161056391906122a4565b508373ffffffffffffffffffffffffffffffffffffffff167fde5d6fd45e32fffb472bcbaeedf6a2e3944633c9701eec7d99adfa07ad6104c182856040516105ac929190612376565b60405180910390a28091505092915050565b60006105c982610c5f565b506105d382610ce7565b9050919050565b6105ec82826105e7610d24565b610d2c565b5050565b600073ffffffffffffffffffffffffffffffffffffffff168273ffffffffffffffffffffffffffffffffffffffff16036106625760006040517f64a0ae920000000000000000000000000000000000000000000000000000000081526004016106599190611c58565b60405180910390fd5b60006106768383610671610d24565b610d3e565b90508373ffffffffffffffffffffffffffffffffffffffff168173ffffffffffffffffffffffffffffffffffffffff16146106ec578382826040517f64283d7b0000000000000000000000000000000000000000000000000000000081526004016106e3939291906123a6565b60405180910390fd5b50505050565b61070d838383604051806020016040528060008152506108ea565b505050565b600860009054906101000a900473ffffffffffffffffffffffffffffffffffffffff1681565b600061074382610c5f565b9050919050565b60008073ffffffffffffffffffffffffffffffffffffffff168273ffffffffffffffffffffffffffffffffffffffff16036107bd5760006040517f89c62b640000000000000000000000000000000000000000000000000000000081526004016107b49190611c58565b60405180910390fd5b600360008373ffffffffffffffffffffffffffffffffffffffff1673ffffffffffffffffffffffffffffffffffffffff168152602001908152602001600020549050919050565b61080c610bba565b6108166000610f58565b565b6000600660009054906101000a900473ffffffffffffffffffffffffffffffffffffffff16905090565b60606001805461085190611fac565b80601f016020809104026020016040519081016040528092919081815260200182805461087d90611fac565b80156108ca5780601f1061089f576101008083540402835291602001916108ca565b820191906000526020600020905b8154815290600101906020018083116108ad57829003601f168201915b5050505050905090565b6108e66108df610d24565b838361101e565b5050565b6108f58484846105f0565b610909610900610d24565b8585858561118d565b50505050565b606061091a82610c5f565b5060096000838152602001908152602001600020805461093990611fac565b80601f016020809104026020016040519081016040528092919081815260200182805461096590611fac565b80156109b25780601f10610987576101008083540402835291602001916109b2565b820191906000526020600020905b81548152906001019060200180831161099557829003601f168201915b50505050509050919050565b6000600560008473ffffffffffffffffffffffffffffffffffffffff1673ffffffffffffffffffffffffffffffffffffffff16815260200190815260200160002060008373ffffffffffffffffffffffffffffffffffffffff1673ffffffffffffffffffffffffffffffffffffffff16815260200190815260200160002060009054906101000a900460ff16905092915050565b610a5a610bba565b600073ffffffffffffffffffffffffffffffffffffffff168173ffffffffffffffffffffffffffffffffffffffff1603610acc5760006040517f1e4fbdf7000000000000000000000000000000000000000000000000000000008152600401610ac39190611c58565b60405180910390fd5b610ad581610f58565b50565b60007f80ac58cd000000000000000000000000000000000000000000000000000000007bffffffffffffffffffffffffffffffffffffffffffffffffffffffff1916827bffffffffffffffffffffffffffffffffffffffffffffffffffffffff19161480610ba357507f5b5e139f000000000000000000000000000000000000000000000000000000007bffffffffffffffffffffffffffffffffffffffffffffffffffffffff1916827bffffffffffffffffffffffffffffffffffffffffffffffffffffffff1916145b80610bb35750610bb28261133e565b5b9050919050565b610bc2610d24565b73ffffffffffffffffffffffffffffffffffffffff16610be0610818565b73ffffffffffffffffffffffffffffffffffffffff1614610c3f57610c03610d24565b6040517f118cdaa7000000000000000000000000000000000000000000000000000000008152600401610c369190611c58565b60405180910390fd5b565b610c5b8282604051806020016040528060008152506113a8565b5050565b600080610c6b836113cc565b9050600073ffffffffffffffffffffffffffffffffffffffff168173ffffffffffffffffffffffffffffffffffffffff1603610cde57826040517f7e273289000000000000000000000000000000000000000000000000000000008152600401610cd59190611bd5565b60405180910390fd5b80915050919050565b60006004600083815260200190815260200160002060009054906101000a900473ffffffffffffffffffffffffffffffffffffffff169050919050565b600033905090565b610d398383836001611409565b505050565b600080610d4a846113cc565b9050600073ffffffffffffffffffffffffffffffffffffffff168373ffffffffffffffffffffffffffffffffffffffff1614610d8c57610d8b8184866115ce565b5b600073ffffffffffffffffffffffffffffffffffffffff168173ffffffffffffffffffffffffffffffffffffffff1614610e1d57610dce600085600080611409565b6001600360008373ffffffffffffffffffffffffffffffffffffffff1673ffffffffffffffffffffffffffffffffffffffff168152602001908152602001600020600082825403925050819055505b600073ffffffffffffffffffffffffffffffffffffffff168573ffffffffffffffffffffffffffffffffffffffff1614610ea0576001600360008773ffffffffffffffffffffffffffffffffffffffff1673ffffffffffffffffffffffffffffffffffffffff168152602001908152602001600020600082825401925050819055505b846002600086815260200190815260200160002060006101000a81548173ffffffffffffffffffffffffffffffffffffffff021916908373ffffffffffffffffffffffffffffffffffffffff160217905550838573ffffffffffffffffffffffffffffffffffffffff168273ffffffffffffffffffffffffffffffffffffffff167fddf252ad1be2c89b69c2b068fc378daa952ba7f163c4a11628f55a4df523b3ef60405160405180910390a4809150509392505050565b6000600660009054906101000a900473ffffffffffffffffffffffffffffffffffffffff16905081600660006101000a81548173ffffffffffffffffffffffffffffffffffffffff021916908373ffffffffffffffffffffffffffffffffffffffff1602179055508173ffffffffffffffffffffffffffffffffffffffff168173ffffffffffffffffffffffffffffffffffffffff167f8be0079c531659141344cd1fd0a4f28419497f9722a3daafe3b4186f6b6457e060405160405180910390a35050565b600073ffffffffffffffffffffffffffffffffffffffff168273ffffffffffffffffffffffffffffffffffffffff160361108f57816040517f5b08ba180000000000000000000000000000000000000000000000000000000081526004016110869190611c58565b60405180910390fd5b80600560008573ffffffffffffffffffffffffffffffffffffffff1673ffffffffffffffffffffffffffffffffffffffff16815260200190815260200160002060008473ffffffffffffffffffffffffffffffffffffffff1673ffffffffffffffffffffffffffffffffffffffff16815260200190815260200160002060006101000a81548160ff0219169083151502179055508173ffffffffffffffffffffffffffffffffffffffff168373ffffffffffffffffffffffffffffffffffffffff167f17307eab39ab6107e8899845ad3d59bd9653f200f220920489ca2b5937696c31836040516111809190611900565b60405180910390a3505050565b60008373ffffffffffffffffffffffffffffffffffffffff163b1115611337578273ffffffffffffffffffffffffffffffffffffffff1663150b7a02868685856040518563ffffffff1660e01b81526004016111ec9493929190612432565b6020604051808303816000875af192505050801561122857506040513d601f19601f820116820180604052508101906112259190612493565b60015b6112ac573d8060008114611258576040519150601f19603f3d011682016040523d82523d6000602084013e61125d565b606091505b5060008151036112a457836040517f64a0ae9200000000000000000000000000000000000000000000000000000000815260040161129b9190611c58565b60405180910390fd5b805181602001fd5b63150b7a0260e01b7bffffffffffffffffffffffffffffffffffffffffffffffffffffffff1916817bffffffffffffffffffffffffffffffffffffffffffffffffffffffff19161461133557836040517f64a0ae9200000000000000000000000000000000000000000000000000000000815260040161132c9190611c58565b60405180910390fd5b505b5050505050565b60007f01ffc9a7000000000000000000000000000000000000000000000000000000007bffffffffffffffffffffffffffffffffffffffffffffffffffffffff1916827bffffffffffffffffffffffffffffffffffffffffffffffffffffffff1916149050919050565b6113b28383611692565b6113c76113bd610d24565b600085858561118d565b505050565b60006002600083815260200190815260200160002060009054906101000a900473ffffffffffffffffffffffffffffffffffffffff169050919050565b80806114425750600073ffffffffffffffffffffffffffffffffffffffff168273ffffffffffffffffffffffffffffffffffffffff1614155b1561157657600061145284610c5f565b9050600073ffffffffffffffffffffffffffffffffffffffff168373ffffffffffffffffffffffffffffffffffffffff16141580156114bd57508273ffffffffffffffffffffffffffffffffffffffff168173ffffffffffffffffffffffffffffffffffffffff1614155b80156114d057506114ce81846109be565b155b1561151257826040517fa9fbf51f0000000000000000000000000000000000000000000000000000000081526004016115099190611c58565b60405180910390fd5b811561157457838573ffffffffffffffffffffffffffffffffffffffff168273ffffffffffffffffffffffffffffffffffffffff167f8c5be1e5ebec7d5bd14f71427d1e84f3dd0314c0f7b2291e5b200ac8c7c3b92560405160405180910390a45b505b836004600085815260200190815260200160002060006101000a81548173ffffffffffffffffffffffffffffffffffffffff021916908373ffffffffffffffffffffffffffffffffffffffff16021790555050505050565b6115d983838361178b565b61168d57600073ffffffffffffffffffffffffffffffffffffffff168373ffffffffffffffffffffffffffffffffffffffff160361164e57806040517f7e2732890000000000000000000000000000000000000000000000000000000081526004016116459190611bd5565b60405180910390fd5b81816040517f177e802f0000000000000000000000000000000000000000000000000000000081526004016116849291906124c0565b60405180910390fd5b505050565b600073ffffffffffffffffffffffffffffffffffffffff168273ffffffffffffffffffffffffffffffffffffffff16036117045760006040517f64a0ae920000000000000000000000000000000000000000000000000000000081526004016116fb9190611c58565b60405180910390fd5b600061171283836000610d3e565b9050600073ffffffffffffffffffffffffffffffffffffffff168173ffffffffffffffffffffffffffffffffffffffff16146117865760006040517f73c6ac6e00000000000000000000000000000000000000000000000000000000815260040161177d9190611c58565b60405180910390fd5b505050565b60008073ffffffffffffffffffffffffffffffffffffffff168373ffffffffffffffffffffffffffffffffffffffff161415801561184357508273ffffffffffffffffffffffffffffffffffffffff168473ffffffffffffffffffffffffffffffffffffffff161480611804575061180384846109be565b5b8061184257508273ffffffffffffffffffffffffffffffffffffffff1661182a83610ce7565b73ffffffffffffffffffffffffffffffffffffffff16145b5b90509392505050565b6000604051905090565b600080fd5b600080fd5b60007fffffffff0000000000000000000000000000000000000000000000000000000082169050919050565b61189581611860565b81146118a057600080fd5b50565b6000813590506118b28161188c565b92915050565b6000602082840312156118ce576118cd611856565b5b60006118dc848285016118a3565b91505092915050565b60008115159050919050565b6118fa816118e5565b82525050565b600060208201905061191560008301846118f1565b92915050565b600081519050919050565b600082825260208201905092915050565b60005b8381101561195557808201518184015260208101905061193a565b60008484015250505050565b6000601f19601f8301169050919050565b600061197d8261191b565b6119878185611926565b9350611997818560208601611937565b6119a081611961565b840191505092915050565b600060208201905081810360008301526119c58184611972565b905092915050565b600073ffffffffffffffffffffffffffffffffffffffff82169050919050565b60006119f8826119cd565b9050919050565b611a08816119ed565b8114611a1357600080fd5b50565b600081359050611a25816119ff565b92915050565b600080fd5b600080fd5b7f4e487b7100000000000000000000000000000000000000000000000000000000600052604160045260246000fd5b611a6d82611961565b810181811067ffffffffffffffff82111715611a8c57611a8b611a35565b5b80604052505050565b6000611a9f61184c565b9050611aab8282611a64565b919050565b600067ffffffffffffffff821115611acb57611aca611a35565b5b611ad482611961565b9050602081019050919050565b82818337600083830152505050565b6000611b03611afe84611ab0565b611a95565b905082815260208101848484011115611b1f57611b1e611a30565b5b611b2a848285611ae1565b509392505050565b600082601f830112611b4757611b46611a2b565b5b8135611b57848260208601611af0565b91505092915050565b60008060408385031215611b7757611b76611856565b5b6000611b8585828601611a16565b925050602083013567ffffffffffffffff811115611ba657611ba561185b565b5b611bb285828601611b32565b9150509250929050565b6000819050919050565b611bcf81611bbc565b82525050565b6000602082019050611bea6000830184611bc6565b92915050565b611bf981611bbc565b8114611c0457600080fd5b50565b600081359050611c1681611bf0565b92915050565b600060208284031215611c3257611c31611856565b5b6000611c4084828501611c07565b91505092915050565b611c52816119ed565b82525050565b6000602082019050611c6d6000830184611c49565b92915050565b60008060408385031215611c8a57611c89611856565b5b6000611c9885828601611a16565b9250506020611ca985828601611c07565b9150509250929050565b600080600060608486031215611ccc57611ccb611856565b5b6000611cda86828701611a16565b9350506020611ceb86828701611a16565b9250506040611cfc86828701611c07565b9150509250925092565b6000819050919050565b6000611d2b611d26611d21846119cd565b611d06565b6119cd565b9050919050565b6000611d3d82611d10565b9050919050565b6000611d4f82611d32565b9050919050565b611d5f81611d44565b82525050565b6000602082019050611d7a6000830184611d56565b92915050565b600060208284031215611d9657611d95611856565b5b6000611da484828501611a16565b91505092915050565b611db6816118e5565b8114611dc157600080fd5b50565b600081359050611dd381611dad565b92915050565b60008060408385031215611df057611def611856565b5b6000611dfe85828601611a16565b9250506020611e0f85828601611dc4565b9150509250929050565b600067ffffffffffffffff821115611e3457611e33611a35565b5b611e3d82611961565b9050602081019050919050565b6000611e5d611e5884611e19565b611a95565b905082815260208101848484011115611e7957611e78611a30565b5b611e84848285611ae1565b509392505050565b600082601f830112611ea157611ea0611a2b565b5b8135611eb1848260208601611e4a565b91505092915050565b60008060008060808587031215611ed457611ed3611856565b5b6000611ee287828801611a16565b9450506020611ef387828801611a16565b9350506040611f0487828801611c07565b925050606085013567ffffffffffffffff811115611f2557611f2461185b565b5b611f3187828801611e8c565b91505092959194509250565b60008060408385031215611f5457611f53611856565b5b6000611f6285828601611a16565b9250506020611f7385828601611a16565b9150509250929050565b7f4e487b7100000000000000000000000000000000000000000000000000000000600052602260045260246000fd5b60006002820490506001821680611fc457607f821691505b602082108103611fd757611fd6611f7d565b5b50919050565b600081519050611fec81611dad565b92915050565b60006020828403121561200857612007611856565b5b600061201684828501611fdd565b91505092915050565b7f4e6f7420612076616c696420656d706c6f796565000000000000000000000000600082015250565b6000612055601483611926565b91506120608261201f565b602082019050919050565b6000602082019050818103600083015261208481612048565b9050919050565b7f4e487b7100000000000000000000000000000000000000000000000000000000600052601160045260246000fd5b60006120c582611bbc565b91507fffffffffffffffffffffffffffffffffffffffffffffffffffffffffffffffff82036120f7576120f661208b565b5b600182019050919050565b60008190508160005260206000209050919050565b60006020601f8301049050919050565b600082821b905092915050565b6000600883026121647fffffffffffffffffffffffffffffffffffffffffffffffffffffffffffffffff82612127565b61216e8683612127565b95508019841693508086168417925050509392505050565b60006121a161219c61219784611bbc565b611d06565b611bbc565b9050919050565b6000819050919050565b6121bb83612186565b6121cf6121c7826121a8565b848454612134565b825550505050565b600090565b6121e46121d7565b6121ef8184846121b2565b505050565b5b81811015612213576122086000826121dc565b6001810190506121f5565b5050565b601f8211156122585761222981612102565b61223284612117565b81016020851015612241578190505b61225561224d85612117565b8301826121f4565b50505b505050565b600082821c905092915050565b600061227b6000198460080261225d565b1980831691505092915050565b6000612294838361226a565b9150826002028217905092915050565b6122ad8261191b565b67ffffffffffffffff8111156122c6576122c5611a35565b5b6122d08254611fac565b6122db828285612217565b600060209050601f83116001811461230e57600084156122fc578287015190505b6123068582612288565b86555061236e565b601f19841661231c86612102565b60005b828110156123445784890151825560018201915060208501945060208101905061231f565b86831015612361578489015161235d601f89168261226a565b8355505b6001600288020188555050505b505050505050565b600060408201905061238b6000830185611bc6565b818103602083015261239d8184611972565b90509392505050565b60006060820190506123bb6000830186611c49565b6123c86020830185611bc6565b6123d56040830184611c49565b949350505050565b600081519050919050565b600082825260208201905092915050565b6000612404826123dd565b61240e81856123e8565b935061241e818560208601611937565b61242781611961565b840191505092915050565b60006080820190506124476000830187611c49565b6124546020830186611c49565b6124616040830185611bc6565b818103606083015261247381846123f9565b905095945050505050565b60008151905061248d8161188c565b92915050565b6000602082840312156124a9576124a8611856565b5b60006124b78482850161247e565b91505092915050565b60006040820190506124d56000830185611c49565b6124e26020830184611bc6565b939250505056fea2646970667358221220cc1c78e1f98bd1fd20b910f44f494c213d36ca7ab62fbebbf368da32621276aa64736f6c63430008140033",
  "linkReferences": {},
  "deployedLinkReferences": {}
}